{
	"contracts/permission/PermissionControl.sol": {
		"PermissionControl": {
			"abi": [
				{
					"inputs": [
						{
							"internalType": "address",
							"name": "patient",
							"type": "address"
						},
						{
							"internalType": "address",
							"name": "doctor",
							"type": "address"
						}
					],
					"name": "checkPermission",
					"outputs": [
						{
							"internalType": "bool",
							"name": "",
							"type": "bool"
						}
					],
					"stateMutability": "view",
					"type": "function"
				},
				{
					"inputs": [
						{
							"internalType": "address",
							"name": "_address",
							"type": "address"
						}
					],
					"name": "grantPermission",
					"outputs": [],
					"stateMutability": "nonpayable",
					"type": "function"
				},
				{
					"inputs": [
						{
							"internalType": "address",
							"name": "user",
							"type": "address"
						}
					],
					"name": "isDoctor",
					"outputs": [
						{
							"internalType": "bool",
							"name": "",
							"type": "bool"
						}
					],
					"stateMutability": "view",
					"type": "function"
				},
				{
					"inputs": [
						{
							"internalType": "address",
							"name": "user",
							"type": "address"
						}
					],
					"name": "isPatient",
					"outputs": [
						{
							"internalType": "bool",
							"name": "",
							"type": "bool"
						}
					],
					"stateMutability": "view",
					"type": "function"
				},
				{
					"inputs": [],
					"name": "registerAsDoctor",
					"outputs": [],
					"stateMutability": "nonpayable",
					"type": "function"
				},
				{
					"inputs": [],
					"name": "registerAsPatient",
					"outputs": [],
					"stateMutability": "nonpayable",
					"type": "function"
				},
				{
					"inputs": [
						{
							"internalType": "address",
							"name": "_address",
							"type": "address"
						}
					],
					"name": "revokePermission",
					"outputs": [],
					"stateMutability": "nonpayable",
					"type": "function"
				},
				{
					"inputs": [
						{
							"internalType": "address",
							"name": "",
							"type": "address"
						}
					],
					"name": "roles",
					"outputs": [
						{
							"internalType": "enum UserRegistry.Role",
							"name": "",
							"type": "uint8"
						}
					],
					"stateMutability": "view",
					"type": "function"
				}
			],
			"devdoc": {
				"kind": "dev",
				"methods": {},
				"version": 1
			},
			"evm": {
				"assembly": "    /* \"contracts/permission/PermissionControl.sol\":68:1101  contract PermissionControl is UserRegistry {... */\n  mstore(0x40, 0x80)\n  callvalue\n  dup1\n  iszero\n  tag_1\n  jumpi\n  revert(0x00, 0x00)\ntag_1:\n  pop\n  dataSize(sub_0)\n  dup1\n  dataOffset(sub_0)\n  0x00\n  codecopy\n  0x00\n  return\nstop\n\nsub_0: assembly {\n        /* \"contracts/permission/PermissionControl.sol\":68:1101  contract PermissionControl is UserRegistry {... */\n      mstore(0x40, 0x80)\n      callvalue\n      dup1\n      iszero\n      tag_1\n      jumpi\n      revert(0x00, 0x00)\n    tag_1:\n      pop\n      jumpi(tag_2, lt(calldatasize, 0x04))\n      shr(0xe0, calldataload(0x00))\n      dup1\n      0x99374642\n      gt\n      tag_11\n      jumpi\n      dup1\n      0x99374642\n      eq\n      tag_7\n      jumpi\n      dup1\n      0x996440c6\n      eq\n      tag_8\n      jumpi\n      dup1\n      0xa3bf5b9a\n      eq\n      tag_9\n      jumpi\n      dup1\n      0xa99ad4ee\n      eq\n      tag_10\n      jumpi\n      jump(tag_2)\n    tag_11:\n      dup1\n      0x1a160fe9\n      eq\n      tag_3\n      jumpi\n      dup1\n      0x2d8e3278\n      eq\n      tag_4\n      jumpi\n      dup1\n      0x6ba7fe7f\n      eq\n      tag_5\n      jumpi\n      dup1\n      0x8f9c79ed\n      eq\n      tag_6\n      jumpi\n    tag_2:\n      revert(0x00, 0x00)\n        /* \"contracts/permission/PermissionControl.sol\":934:1099  function checkPermission(address patient, address doctor)... */\n    tag_3:\n      tag_12\n      0x04\n      dup1\n      calldatasize\n      sub\n      dup2\n      add\n      swap1\n      tag_13\n      swap2\n      swap1\n      tag_14\n      jump\t// in\n    tag_13:\n      tag_15\n      jump\t// in\n    tag_12:\n      mload(0x40)\n      tag_16\n      swap2\n      swap1\n      tag_17\n      jump\t// in\n    tag_16:\n      mload(0x40)\n      dup1\n      swap2\n      sub\n      swap1\n      return\n        /* \"contracts/permission/PermissionControl.sol\":432:677  function grantPermission(address _address) public onlyPatient {... */\n    tag_4:\n      tag_18\n      0x04\n      dup1\n      calldatasize\n      sub\n      dup2\n      add\n      swap1\n      tag_19\n      swap2\n      swap1\n      tag_20\n      jump\t// in\n    tag_19:\n      tag_21\n      jump\t// in\n    tag_18:\n      stop\n        /* \"contracts/user/UserRegistry.sol\":333:487  function registerAsDoctor() public {... */\n    tag_5:\n      tag_22\n      tag_23\n      jump\t// in\n    tag_22:\n      stop\n        /* \"contracts/user/UserRegistry.sol\":493:604  function isPatient(address user) public view returns (bool) {... */\n    tag_6:\n      tag_24\n      0x04\n      dup1\n      calldatasize\n      sub\n      dup2\n      add\n      swap1\n      tag_25\n      swap2\n      swap1\n      tag_20\n      jump\t// in\n    tag_25:\n      tag_26\n      jump\t// in\n    tag_24:\n      mload(0x40)\n      tag_27\n      swap2\n      swap1\n      tag_17\n      jump\t// in\n    tag_27:\n      mload(0x40)\n      dup1\n      swap2\n      sub\n      swap1\n      return\n        /* \"contracts/user/UserRegistry.sol\":127:164  mapping(address => Role) public roles */\n    tag_7:\n      tag_28\n      0x04\n      dup1\n      calldatasize\n      sub\n      dup2\n      add\n      swap1\n      tag_29\n      swap2\n      swap1\n      tag_20\n      jump\t// in\n    tag_29:\n      tag_30\n      jump\t// in\n    tag_28:\n      mload(0x40)\n      tag_31\n      swap2\n      swap1\n      tag_32\n      jump\t// in\n    tag_31:\n      mload(0x40)\n      dup1\n      swap2\n      sub\n      swap1\n      return\n        /* \"contracts/user/UserRegistry.sol\":610:719  function isDoctor(address user) public view returns (bool) {... */\n    tag_8:\n      tag_33\n      0x04\n      dup1\n      calldatasize\n      sub\n      dup2\n      add\n      swap1\n      tag_34\n      swap2\n      swap1\n      tag_20\n      jump\t// in\n    tag_34:\n      tag_35\n      jump\t// in\n    tag_33:\n      mload(0x40)\n      tag_36\n      swap2\n      swap1\n      tag_17\n      jump\t// in\n    tag_36:\n      mload(0x40)\n      dup1\n      swap2\n      sub\n      swap1\n      return\n        /* \"contracts/permission/PermissionControl.sol\":683:928  function revokePermission(address _address) public onlyPatient {... */\n    tag_9:\n      tag_37\n      0x04\n      dup1\n      calldatasize\n      sub\n      dup2\n      add\n      swap1\n      tag_38\n      swap2\n      swap1\n      tag_20\n      jump\t// in\n    tag_38:\n      tag_39\n      jump\t// in\n    tag_37:\n      stop\n        /* \"contracts/user/UserRegistry.sol\":171:327  function registerAsPatient() public {... */\n    tag_10:\n      tag_40\n      tag_41\n      jump\t// in\n    tag_40:\n      stop\n        /* \"contracts/permission/PermissionControl.sol\":934:1099  function checkPermission(address patient, address doctor)... */\n    tag_15:\n        /* \"contracts/permission/PermissionControl.sol\":1037:1041  bool */\n      0x00\n        /* \"contracts/permission/PermissionControl.sol\":1064:1075  permissions */\n      0x01\n        /* \"contracts/permission/PermissionControl.sol\":1064:1084  permissions[patient] */\n      0x00\n        /* \"contracts/permission/PermissionControl.sol\":1076:1083  patient */\n      dup5\n        /* \"contracts/permission/PermissionControl.sol\":1064:1084  permissions[patient] */\n      0xffffffffffffffffffffffffffffffffffffffff\n      and\n      0xffffffffffffffffffffffffffffffffffffffff\n      and\n      dup2\n      mstore\n      0x20\n      add\n      swap1\n      dup2\n      mstore\n      0x20\n      add\n      0x00\n      keccak256\n        /* \"contracts/permission/PermissionControl.sol\":1064:1092  permissions[patient][doctor] */\n      0x00\n        /* \"contracts/permission/PermissionControl.sol\":1085:1091  doctor */\n      dup4\n        /* \"contracts/permission/PermissionControl.sol\":1064:1092  permissions[patient][doctor] */\n      0xffffffffffffffffffffffffffffffffffffffff\n      and\n      0xffffffffffffffffffffffffffffffffffffffff\n      and\n      dup2\n      mstore\n      0x20\n      add\n      swap1\n      dup2\n      mstore\n      0x20\n      add\n      0x00\n      keccak256\n      0x00\n      swap1\n      sload\n      swap1\n      0x0100\n      exp\n      swap1\n      div\n      0xff\n      and\n        /* \"contracts/permission/PermissionControl.sol\":1057:1092  return permissions[patient][doctor] */\n      swap1\n      pop\n        /* \"contracts/permission/PermissionControl.sol\":934:1099  function checkPermission(address patient, address doctor)... */\n      swap3\n      swap2\n      pop\n      pop\n      jump\t// out\n        /* \"contracts/permission/PermissionControl.sol\":432:677  function grantPermission(address _address) public onlyPatient {... */\n    tag_21:\n        /* \"contracts/permission/PermissionControl.sol\":371:383  Role.Patient */\n      0x01\n        /* \"contracts/permission/PermissionControl.sol\":350:383  roles[msg.sender] == Role.Patient */\n      0x02\n      dup2\n      gt\n      iszero\n      tag_44\n      jumpi\n      tag_45\n      tag_46\n      jump\t// in\n    tag_45:\n    tag_44:\n        /* \"contracts/permission/PermissionControl.sol\":350:355  roles */\n      0x00\n        /* \"contracts/permission/PermissionControl.sol\":350:367  roles[msg.sender] */\n      0x00\n        /* \"contracts/permission/PermissionControl.sol\":356:366  msg.sender */\n      caller\n        /* \"contracts/permission/PermissionControl.sol\":350:367  roles[msg.sender] */\n      0xffffffffffffffffffffffffffffffffffffffff\n      and\n      0xffffffffffffffffffffffffffffffffffffffff\n      and\n      dup2\n      mstore\n      0x20\n      add\n      swap1\n      dup2\n      mstore\n      0x20\n      add\n      0x00\n      keccak256\n      0x00\n      swap1\n      sload\n      swap1\n      0x0100\n      exp\n      swap1\n      div\n      0xff\n      and\n        /* \"contracts/permission/PermissionControl.sol\":350:383  roles[msg.sender] == Role.Patient */\n      0x02\n      dup2\n      gt\n      iszero\n      tag_47\n      jumpi\n      tag_48\n      tag_46\n      jump\t// in\n    tag_48:\n    tag_47:\n      eq\n        /* \"contracts/permission/PermissionControl.sol\":342:408  require(roles[msg.sender] == Role.Patient, \"Only patient allowed\") */\n      tag_49\n      jumpi\n      mload(0x40)\n      0x08c379a000000000000000000000000000000000000000000000000000000000\n      dup2\n      mstore\n      0x04\n      add\n      tag_50\n      swap1\n      tag_51\n      jump\t// in\n    tag_50:\n      mload(0x40)\n      dup1\n      swap2\n      sub\n      swap1\n      revert\n    tag_49:\n        /* \"contracts/permission/PermissionControl.sol\":562:567  false */\n      0x00\n        /* \"contracts/permission/PermissionControl.sol\":525:567  permissions[msg.sender][_address] == false */\n      iszero\n      iszero\n        /* \"contracts/permission/PermissionControl.sol\":525:536  permissions */\n      0x01\n        /* \"contracts/permission/PermissionControl.sol\":525:548  permissions[msg.sender] */\n      0x00\n        /* \"contracts/permission/PermissionControl.sol\":537:547  msg.sender */\n      caller\n        /* \"contracts/permission/PermissionControl.sol\":525:548  permissions[msg.sender] */\n      0xffffffffffffffffffffffffffffffffffffffff\n      and\n      0xffffffffffffffffffffffffffffffffffffffff\n      and\n      dup2\n      mstore\n      0x20\n      add\n      swap1\n      dup2\n      mstore\n      0x20\n      add\n      0x00\n      keccak256\n        /* \"contracts/permission/PermissionControl.sol\":525:558  permissions[msg.sender][_address] */\n      0x00\n        /* \"contracts/permission/PermissionControl.sol\":549:557  _address */\n      dup4\n        /* \"contracts/permission/PermissionControl.sol\":525:558  permissions[msg.sender][_address] */\n      0xffffffffffffffffffffffffffffffffffffffff\n      and\n      0xffffffffffffffffffffffffffffffffffffffff\n      and\n      dup2\n      mstore\n      0x20\n      add\n      swap1\n      dup2\n      mstore\n      0x20\n      add\n      0x00\n      keccak256\n      0x00\n      swap1\n      sload\n      swap1\n      0x0100\n      exp\n      swap1\n      div\n      0xff\n      and\n        /* \"contracts/permission/PermissionControl.sol\":525:567  permissions[msg.sender][_address] == false */\n      iszero\n      iszero\n      eq\n        /* \"contracts/permission/PermissionControl.sol\":504:620  require(... */\n      tag_53\n      jumpi\n      mload(0x40)\n      0x08c379a000000000000000000000000000000000000000000000000000000000\n      dup2\n      mstore\n      0x04\n      add\n      tag_54\n      swap1\n      tag_55\n      jump\t// in\n    tag_54:\n      mload(0x40)\n      dup1\n      swap2\n      sub\n      swap1\n      revert\n    tag_53:\n        /* \"contracts/permission/PermissionControl.sol\":666:670  true */\n      0x01\n        /* \"contracts/permission/PermissionControl.sol\":630:641  permissions */\n      dup1\n        /* \"contracts/permission/PermissionControl.sol\":630:653  permissions[msg.sender] */\n      0x00\n        /* \"contracts/permission/PermissionControl.sol\":642:652  msg.sender */\n      caller\n        /* \"contracts/permission/PermissionControl.sol\":630:653  permissions[msg.sender] */\n      0xffffffffffffffffffffffffffffffffffffffff\n      and\n      0xffffffffffffffffffffffffffffffffffffffff\n      and\n      dup2\n      mstore\n      0x20\n      add\n      swap1\n      dup2\n      mstore\n      0x20\n      add\n      0x00\n      keccak256\n        /* \"contracts/permission/PermissionControl.sol\":630:663  permissions[msg.sender][_address] */\n      0x00\n        /* \"contracts/permission/PermissionControl.sol\":654:662  _address */\n      dup4\n        /* \"contracts/permission/PermissionControl.sol\":630:663  permissions[msg.sender][_address] */\n      0xffffffffffffffffffffffffffffffffffffffff\n      and\n      0xffffffffffffffffffffffffffffffffffffffff\n      and\n      dup2\n      mstore\n      0x20\n      add\n      swap1\n      dup2\n      mstore\n      0x20\n      add\n      0x00\n      keccak256\n      0x00\n        /* \"contracts/permission/PermissionControl.sol\":630:670  permissions[msg.sender][_address] = true */\n      0x0100\n      exp\n      dup2\n      sload\n      dup2\n      0xff\n      mul\n      not\n      and\n      swap1\n      dup4\n      iszero\n      iszero\n      mul\n      or\n      swap1\n      sstore\n      pop\n        /* \"contracts/permission/PermissionControl.sol\":432:677  function grantPermission(address _address) public onlyPatient {... */\n      pop\n      jump\t// out\n        /* \"contracts/user/UserRegistry.sol\":333:487  function registerAsDoctor() public {... */\n    tag_23:\n        /* \"contracts/user/UserRegistry.sol\":407:416  Role.None */\n      0x00\n        /* \"contracts/user/UserRegistry.sol\":386:416  roles[msg.sender] == Role.None */\n      0x02\n      dup2\n      gt\n      iszero\n      tag_57\n      jumpi\n      tag_58\n      tag_46\n      jump\t// in\n    tag_58:\n    tag_57:\n        /* \"contracts/user/UserRegistry.sol\":386:391  roles */\n      0x00\n        /* \"contracts/user/UserRegistry.sol\":386:403  roles[msg.sender] */\n      0x00\n        /* \"contracts/user/UserRegistry.sol\":392:402  msg.sender */\n      caller\n        /* \"contracts/user/UserRegistry.sol\":386:403  roles[msg.sender] */\n      0xffffffffffffffffffffffffffffffffffffffff\n      and\n      0xffffffffffffffffffffffffffffffffffffffff\n      and\n      dup2\n      mstore\n      0x20\n      add\n      swap1\n      dup2\n      mstore\n      0x20\n      add\n      0x00\n      keccak256\n      0x00\n      swap1\n      sload\n      swap1\n      0x0100\n      exp\n      swap1\n      div\n      0xff\n      and\n        /* \"contracts/user/UserRegistry.sol\":386:416  roles[msg.sender] == Role.None */\n      0x02\n      dup2\n      gt\n      iszero\n      tag_59\n      jumpi\n      tag_60\n      tag_46\n      jump\t// in\n    tag_60:\n    tag_59:\n      eq\n        /* \"contracts/user/UserRegistry.sol\":378:439  require(roles[msg.sender] == Role.None, \"Already registered\") */\n      tag_61\n      jumpi\n      mload(0x40)\n      0x08c379a000000000000000000000000000000000000000000000000000000000\n      dup2\n      mstore\n      0x04\n      add\n      tag_62\n      swap1\n      tag_63\n      jump\t// in\n    tag_62:\n      mload(0x40)\n      dup1\n      swap2\n      sub\n      swap1\n      revert\n    tag_61:\n        /* \"contracts/user/UserRegistry.sol\":469:480  Role.Doctor */\n      0x02\n        /* \"contracts/user/UserRegistry.sol\":449:454  roles */\n      0x00\n        /* \"contracts/user/UserRegistry.sol\":449:466  roles[msg.sender] */\n      0x00\n        /* \"contracts/user/UserRegistry.sol\":455:465  msg.sender */\n      caller\n        /* \"contracts/user/UserRegistry.sol\":449:466  roles[msg.sender] */\n      0xffffffffffffffffffffffffffffffffffffffff\n      and\n      0xffffffffffffffffffffffffffffffffffffffff\n      and\n      dup2\n      mstore\n      0x20\n      add\n      swap1\n      dup2\n      mstore\n      0x20\n      add\n      0x00\n      keccak256\n      0x00\n        /* \"contracts/user/UserRegistry.sol\":449:480  roles[msg.sender] = Role.Doctor */\n      0x0100\n      exp\n      dup2\n      sload\n      dup2\n      0xff\n      mul\n      not\n      and\n      swap1\n      dup4\n      0x02\n      dup2\n      gt\n      iszero\n      tag_64\n      jumpi\n      tag_65\n      tag_46\n      jump\t// in\n    tag_65:\n    tag_64:\n      mul\n      or\n      swap1\n      sstore\n      pop\n        /* \"contracts/user/UserRegistry.sol\":333:487  function registerAsDoctor() public {... */\n      jump\t// out\n        /* \"contracts/user/UserRegistry.sol\":493:604  function isPatient(address user) public view returns (bool) {... */\n    tag_26:\n        /* \"contracts/user/UserRegistry.sol\":547:551  bool */\n      0x00\n        /* \"contracts/user/UserRegistry.sol\":585:597  Role.Patient */\n      0x01\n        /* \"contracts/user/UserRegistry.sol\":570:597  roles[user] == Role.Patient */\n      0x02\n      dup2\n      gt\n      iszero\n      tag_67\n      jumpi\n      tag_68\n      tag_46\n      jump\t// in\n    tag_68:\n    tag_67:\n        /* \"contracts/user/UserRegistry.sol\":570:575  roles */\n      0x00\n        /* \"contracts/user/UserRegistry.sol\":570:581  roles[user] */\n      0x00\n        /* \"contracts/user/UserRegistry.sol\":576:580  user */\n      dup5\n        /* \"contracts/user/UserRegistry.sol\":570:581  roles[user] */\n      0xffffffffffffffffffffffffffffffffffffffff\n      and\n      0xffffffffffffffffffffffffffffffffffffffff\n      and\n      dup2\n      mstore\n      0x20\n      add\n      swap1\n      dup2\n      mstore\n      0x20\n      add\n      0x00\n      keccak256\n      0x00\n      swap1\n      sload\n      swap1\n      0x0100\n      exp\n      swap1\n      div\n      0xff\n      and\n        /* \"contracts/user/UserRegistry.sol\":570:597  roles[user] == Role.Patient */\n      0x02\n      dup2\n      gt\n      iszero\n      tag_69\n      jumpi\n      tag_70\n      tag_46\n      jump\t// in\n    tag_70:\n    tag_69:\n      eq\n        /* \"contracts/user/UserRegistry.sol\":563:597  return roles[user] == Role.Patient */\n      swap1\n      pop\n        /* \"contracts/user/UserRegistry.sol\":493:604  function isPatient(address user) public view returns (bool) {... */\n      swap2\n      swap1\n      pop\n      jump\t// out\n        /* \"contracts/user/UserRegistry.sol\":127:164  mapping(address => Role) public roles */\n    tag_30:\n      mstore(0x20, 0x00)\n      dup1\n      0x00\n      mstore\n      keccak256(0x00, 0x40)\n      0x00\n      swap2\n      pop\n      sload\n      swap1\n      0x0100\n      exp\n      swap1\n      div\n      0xff\n      and\n      dup2\n      jump\t// out\n        /* \"contracts/user/UserRegistry.sol\":610:719  function isDoctor(address user) public view returns (bool) {... */\n    tag_35:\n        /* \"contracts/user/UserRegistry.sol\":663:667  bool */\n      0x00\n        /* \"contracts/user/UserRegistry.sol\":701:712  Role.Doctor */\n      0x02\n        /* \"contracts/user/UserRegistry.sol\":686:712  roles[user] == Role.Doctor */\n      dup1\n      dup2\n      gt\n      iszero\n      tag_72\n      jumpi\n      tag_73\n      tag_46\n      jump\t// in\n    tag_73:\n    tag_72:\n        /* \"contracts/user/UserRegistry.sol\":686:691  roles */\n      0x00\n        /* \"contracts/user/UserRegistry.sol\":686:697  roles[user] */\n      0x00\n        /* \"contracts/user/UserRegistry.sol\":692:696  user */\n      dup5\n        /* \"contracts/user/UserRegistry.sol\":686:697  roles[user] */\n      0xffffffffffffffffffffffffffffffffffffffff\n      and\n      0xffffffffffffffffffffffffffffffffffffffff\n      and\n      dup2\n      mstore\n      0x20\n      add\n      swap1\n      dup2\n      mstore\n      0x20\n      add\n      0x00\n      keccak256\n      0x00\n      swap1\n      sload\n      swap1\n      0x0100\n      exp\n      swap1\n      div\n      0xff\n      and\n        /* \"contracts/user/UserRegistry.sol\":686:712  roles[user] == Role.Doctor */\n      0x02\n      dup2\n      gt\n      iszero\n      tag_74\n      jumpi\n      tag_75\n      tag_46\n      jump\t// in\n    tag_75:\n    tag_74:\n      eq\n        /* \"contracts/user/UserRegistry.sol\":679:712  return roles[user] == Role.Doctor */\n      swap1\n      pop\n        /* \"contracts/user/UserRegistry.sol\":610:719  function isDoctor(address user) public view returns (bool) {... */\n      swap2\n      swap1\n      pop\n      jump\t// out\n        /* \"contracts/permission/PermissionControl.sol\":683:928  function revokePermission(address _address) public onlyPatient {... */\n    tag_39:\n        /* \"contracts/permission/PermissionControl.sol\":371:383  Role.Patient */\n      0x01\n        /* \"contracts/permission/PermissionControl.sol\":350:383  roles[msg.sender] == Role.Patient */\n      0x02\n      dup2\n      gt\n      iszero\n      tag_77\n      jumpi\n      tag_78\n      tag_46\n      jump\t// in\n    tag_78:\n    tag_77:\n        /* \"contracts/permission/PermissionControl.sol\":350:355  roles */\n      0x00\n        /* \"contracts/permission/PermissionControl.sol\":350:367  roles[msg.sender] */\n      0x00\n        /* \"contracts/permission/PermissionControl.sol\":356:366  msg.sender */\n      caller\n        /* \"contracts/permission/PermissionControl.sol\":350:367  roles[msg.sender] */\n      0xffffffffffffffffffffffffffffffffffffffff\n      and\n      0xffffffffffffffffffffffffffffffffffffffff\n      and\n      dup2\n      mstore\n      0x20\n      add\n      swap1\n      dup2\n      mstore\n      0x20\n      add\n      0x00\n      keccak256\n      0x00\n      swap1\n      sload\n      swap1\n      0x0100\n      exp\n      swap1\n      div\n      0xff\n      and\n        /* \"contracts/permission/PermissionControl.sol\":350:383  roles[msg.sender] == Role.Patient */\n      0x02\n      dup2\n      gt\n      iszero\n      tag_79\n      jumpi\n      tag_80\n      tag_46\n      jump\t// in\n    tag_80:\n    tag_79:\n      eq\n        /* \"contracts/permission/PermissionControl.sol\":342:408  require(roles[msg.sender] == Role.Patient, \"Only patient allowed\") */\n      tag_81\n      jumpi\n      mload(0x40)\n      0x08c379a000000000000000000000000000000000000000000000000000000000\n      dup2\n      mstore\n      0x04\n      add\n      tag_82\n      swap1\n      tag_51\n      jump\t// in\n    tag_82:\n      mload(0x40)\n      dup1\n      swap2\n      sub\n      swap1\n      revert\n    tag_81:\n        /* \"contracts/permission/PermissionControl.sol\":814:818  true */\n      0x01\n        /* \"contracts/permission/PermissionControl.sol\":777:818  permissions[msg.sender][_address] == true */\n      iszero\n      iszero\n        /* \"contracts/permission/PermissionControl.sol\":777:788  permissions */\n      0x01\n        /* \"contracts/permission/PermissionControl.sol\":777:800  permissions[msg.sender] */\n      0x00\n        /* \"contracts/permission/PermissionControl.sol\":789:799  msg.sender */\n      caller\n        /* \"contracts/permission/PermissionControl.sol\":777:800  permissions[msg.sender] */\n      0xffffffffffffffffffffffffffffffffffffffff\n      and\n      0xffffffffffffffffffffffffffffffffffffffff\n      and\n      dup2\n      mstore\n      0x20\n      add\n      swap1\n      dup2\n      mstore\n      0x20\n      add\n      0x00\n      keccak256\n        /* \"contracts/permission/PermissionControl.sol\":777:810  permissions[msg.sender][_address] */\n      0x00\n        /* \"contracts/permission/PermissionControl.sol\":801:809  _address */\n      dup4\n        /* \"contracts/permission/PermissionControl.sol\":777:810  permissions[msg.sender][_address] */\n      0xffffffffffffffffffffffffffffffffffffffff\n      and\n      0xffffffffffffffffffffffffffffffffffffffff\n      and\n      dup2\n      mstore\n      0x20\n      add\n      swap1\n      dup2\n      mstore\n      0x20\n      add\n      0x00\n      keccak256\n      0x00\n      swap1\n      sload\n      swap1\n      0x0100\n      exp\n      swap1\n      div\n      0xff\n      and\n        /* \"contracts/permission/PermissionControl.sol\":777:818  permissions[msg.sender][_address] == true */\n      iszero\n      iszero\n      eq\n        /* \"contracts/permission/PermissionControl.sol\":756:870  require(... */\n      tag_84\n      jumpi\n      mload(0x40)\n      0x08c379a000000000000000000000000000000000000000000000000000000000\n      dup2\n      mstore\n      0x04\n      add\n      tag_85\n      swap1\n      tag_86\n      jump\t// in\n    tag_85:\n      mload(0x40)\n      dup1\n      swap2\n      sub\n      swap1\n      revert\n    tag_84:\n        /* \"contracts/permission/PermissionControl.sol\":916:921  false */\n      0x00\n        /* \"contracts/permission/PermissionControl.sol\":880:891  permissions */\n      0x01\n        /* \"contracts/permission/PermissionControl.sol\":880:903  permissions[msg.sender] */\n      0x00\n        /* \"contracts/permission/PermissionControl.sol\":892:902  msg.sender */\n      caller\n        /* \"contracts/permission/PermissionControl.sol\":880:903  permissions[msg.sender] */\n      0xffffffffffffffffffffffffffffffffffffffff\n      and\n      0xffffffffffffffffffffffffffffffffffffffff\n      and\n      dup2\n      mstore\n      0x20\n      add\n      swap1\n      dup2\n      mstore\n      0x20\n      add\n      0x00\n      keccak256\n        /* \"contracts/permission/PermissionControl.sol\":880:913  permissions[msg.sender][_address] */\n      0x00\n        /* \"contracts/permission/PermissionControl.sol\":904:912  _address */\n      dup4\n        /* \"contracts/permission/PermissionControl.sol\":880:913  permissions[msg.sender][_address] */\n      0xffffffffffffffffffffffffffffffffffffffff\n      and\n      0xffffffffffffffffffffffffffffffffffffffff\n      and\n      dup2\n      mstore\n      0x20\n      add\n      swap1\n      dup2\n      mstore\n      0x20\n      add\n      0x00\n      keccak256\n      0x00\n        /* \"contracts/permission/PermissionControl.sol\":880:921  permissions[msg.sender][_address] = false */\n      0x0100\n      exp\n      dup2\n      sload\n      dup2\n      0xff\n      mul\n      not\n      and\n      swap1\n      dup4\n      iszero\n      iszero\n      mul\n      or\n      swap1\n      sstore\n      pop\n        /* \"contracts/permission/PermissionControl.sol\":683:928  function revokePermission(address _address) public onlyPatient {... */\n      pop\n      jump\t// out\n        /* \"contracts/user/UserRegistry.sol\":171:327  function registerAsPatient() public {... */\n    tag_41:\n        /* \"contracts/user/UserRegistry.sol\":246:255  Role.None */\n      0x00\n        /* \"contracts/user/UserRegistry.sol\":225:255  roles[msg.sender] == Role.None */\n      0x02\n      dup2\n      gt\n      iszero\n      tag_88\n      jumpi\n      tag_89\n      tag_46\n      jump\t// in\n    tag_89:\n    tag_88:\n        /* \"contracts/user/UserRegistry.sol\":225:230  roles */\n      0x00\n        /* \"contracts/user/UserRegistry.sol\":225:242  roles[msg.sender] */\n      0x00\n        /* \"contracts/user/UserRegistry.sol\":231:241  msg.sender */\n      caller\n        /* \"contracts/user/UserRegistry.sol\":225:242  roles[msg.sender] */\n      0xffffffffffffffffffffffffffffffffffffffff\n      and\n      0xffffffffffffffffffffffffffffffffffffffff\n      and\n      dup2\n      mstore\n      0x20\n      add\n      swap1\n      dup2\n      mstore\n      0x20\n      add\n      0x00\n      keccak256\n      0x00\n      swap1\n      sload\n      swap1\n      0x0100\n      exp\n      swap1\n      div\n      0xff\n      and\n        /* \"contracts/user/UserRegistry.sol\":225:255  roles[msg.sender] == Role.None */\n      0x02\n      dup2\n      gt\n      iszero\n      tag_90\n      jumpi\n      tag_91\n      tag_46\n      jump\t// in\n    tag_91:\n    tag_90:\n      eq\n        /* \"contracts/user/UserRegistry.sol\":217:278  require(roles[msg.sender] == Role.None, \"Already registered\") */\n      tag_92\n      jumpi\n      mload(0x40)\n      0x08c379a000000000000000000000000000000000000000000000000000000000\n      dup2\n      mstore\n      0x04\n      add\n      tag_93\n      swap1\n      tag_63\n      jump\t// in\n    tag_93:\n      mload(0x40)\n      dup1\n      swap2\n      sub\n      swap1\n      revert\n    tag_92:\n        /* \"contracts/user/UserRegistry.sol\":308:320  Role.Patient */\n      0x01\n        /* \"contracts/user/UserRegistry.sol\":288:293  roles */\n      0x00\n        /* \"contracts/user/UserRegistry.sol\":288:305  roles[msg.sender] */\n      0x00\n        /* \"contracts/user/UserRegistry.sol\":294:304  msg.sender */\n      caller\n        /* \"contracts/user/UserRegistry.sol\":288:305  roles[msg.sender] */\n      0xffffffffffffffffffffffffffffffffffffffff\n      and\n      0xffffffffffffffffffffffffffffffffffffffff\n      and\n      dup2\n      mstore\n      0x20\n      add\n      swap1\n      dup2\n      mstore\n      0x20\n      add\n      0x00\n      keccak256\n      0x00\n        /* \"contracts/user/UserRegistry.sol\":288:320  roles[msg.sender] = Role.Patient */\n      0x0100\n      exp\n      dup2\n      sload\n      dup2\n      0xff\n      mul\n      not\n      and\n      swap1\n      dup4\n      0x02\n      dup2\n      gt\n      iszero\n      tag_94\n      jumpi\n      tag_95\n      tag_46\n      jump\t// in\n    tag_95:\n    tag_94:\n      mul\n      or\n      swap1\n      sstore\n      pop\n        /* \"contracts/user/UserRegistry.sol\":171:327  function registerAsPatient() public {... */\n      jump\t// out\n        /* \"#utility.yul\":88:205   */\n    tag_97:\n        /* \"#utility.yul\":197:198   */\n      0x00\n        /* \"#utility.yul\":194:195   */\n      0x00\n        /* \"#utility.yul\":187:199   */\n      revert\n        /* \"#utility.yul\":334:460   */\n    tag_99:\n        /* \"#utility.yul\":371:378   */\n      0x00\n        /* \"#utility.yul\":411:453   */\n      0xffffffffffffffffffffffffffffffffffffffff\n        /* \"#utility.yul\":404:409   */\n      dup3\n        /* \"#utility.yul\":400:454   */\n      and\n        /* \"#utility.yul\":389:454   */\n      swap1\n      pop\n        /* \"#utility.yul\":334:460   */\n      swap2\n      swap1\n      pop\n      jump\t// out\n        /* \"#utility.yul\":466:562   */\n    tag_100:\n        /* \"#utility.yul\":503:510   */\n      0x00\n        /* \"#utility.yul\":532:556   */\n      tag_124\n        /* \"#utility.yul\":550:555   */\n      dup3\n        /* \"#utility.yul\":532:556   */\n      tag_99\n      jump\t// in\n    tag_124:\n        /* \"#utility.yul\":521:556   */\n      swap1\n      pop\n        /* \"#utility.yul\":466:562   */\n      swap2\n      swap1\n      pop\n      jump\t// out\n        /* \"#utility.yul\":568:690   */\n    tag_101:\n        /* \"#utility.yul\":641:665   */\n      tag_126\n        /* \"#utility.yul\":659:664   */\n      dup2\n        /* \"#utility.yul\":641:665   */\n      tag_100\n      jump\t// in\n    tag_126:\n        /* \"#utility.yul\":634:639   */\n      dup2\n        /* \"#utility.yul\":631:666   */\n      eq\n        /* \"#utility.yul\":621:684   */\n      tag_127\n      jumpi\n        /* \"#utility.yul\":680:681   */\n      0x00\n        /* \"#utility.yul\":677:678   */\n      0x00\n        /* \"#utility.yul\":670:682   */\n      revert\n        /* \"#utility.yul\":621:684   */\n    tag_127:\n        /* \"#utility.yul\":568:690   */\n      pop\n      jump\t// out\n        /* \"#utility.yul\":696:835   */\n    tag_102:\n        /* \"#utility.yul\":742:747   */\n      0x00\n        /* \"#utility.yul\":780:786   */\n      dup2\n        /* \"#utility.yul\":767:787   */\n      calldataload\n        /* \"#utility.yul\":758:787   */\n      swap1\n      pop\n        /* \"#utility.yul\":796:829   */\n      tag_129\n        /* \"#utility.yul\":823:828   */\n      dup2\n        /* \"#utility.yul\":796:829   */\n      tag_101\n      jump\t// in\n    tag_129:\n        /* \"#utility.yul\":696:835   */\n      swap3\n      swap2\n      pop\n      pop\n      jump\t// out\n        /* \"#utility.yul\":841:1315   */\n    tag_14:\n        /* \"#utility.yul\":909:915   */\n      0x00\n        /* \"#utility.yul\":917:923   */\n      0x00\n        /* \"#utility.yul\":966:968   */\n      0x40\n        /* \"#utility.yul\":954:963   */\n      dup4\n        /* \"#utility.yul\":945:952   */\n      dup6\n        /* \"#utility.yul\":941:964   */\n      sub\n        /* \"#utility.yul\":937:969   */\n      slt\n        /* \"#utility.yul\":934:1053   */\n      iszero\n      tag_131\n      jumpi\n        /* \"#utility.yul\":972:1051   */\n      tag_132\n      tag_97\n      jump\t// in\n    tag_132:\n        /* \"#utility.yul\":934:1053   */\n    tag_131:\n        /* \"#utility.yul\":1092:1093   */\n      0x00\n        /* \"#utility.yul\":1117:1170   */\n      tag_133\n        /* \"#utility.yul\":1162:1169   */\n      dup6\n        /* \"#utility.yul\":1153:1159   */\n      dup3\n        /* \"#utility.yul\":1142:1151   */\n      dup7\n        /* \"#utility.yul\":1138:1160   */\n      add\n        /* \"#utility.yul\":1117:1170   */\n      tag_102\n      jump\t// in\n    tag_133:\n        /* \"#utility.yul\":1107:1170   */\n      swap3\n      pop\n        /* \"#utility.yul\":1063:1180   */\n      pop\n        /* \"#utility.yul\":1219:1221   */\n      0x20\n        /* \"#utility.yul\":1245:1298   */\n      tag_134\n        /* \"#utility.yul\":1290:1297   */\n      dup6\n        /* \"#utility.yul\":1281:1287   */\n      dup3\n        /* \"#utility.yul\":1270:1279   */\n      dup7\n        /* \"#utility.yul\":1266:1288   */\n      add\n        /* \"#utility.yul\":1245:1298   */\n      tag_102\n      jump\t// in\n    tag_134:\n        /* \"#utility.yul\":1235:1298   */\n      swap2\n      pop\n        /* \"#utility.yul\":1190:1308   */\n      pop\n        /* \"#utility.yul\":841:1315   */\n      swap3\n      pop\n      swap3\n      swap1\n      pop\n      jump\t// out\n        /* \"#utility.yul\":1321:1411   */\n    tag_103:\n        /* \"#utility.yul\":1355:1362   */\n      0x00\n        /* \"#utility.yul\":1398:1403   */\n      dup2\n        /* \"#utility.yul\":1391:1404   */\n      iszero\n        /* \"#utility.yul\":1384:1405   */\n      iszero\n        /* \"#utility.yul\":1373:1405   */\n      swap1\n      pop\n        /* \"#utility.yul\":1321:1411   */\n      swap2\n      swap1\n      pop\n      jump\t// out\n        /* \"#utility.yul\":1417:1526   */\n    tag_104:\n        /* \"#utility.yul\":1498:1519   */\n      tag_137\n        /* \"#utility.yul\":1513:1518   */\n      dup2\n        /* \"#utility.yul\":1498:1519   */\n      tag_103\n      jump\t// in\n    tag_137:\n        /* \"#utility.yul\":1493:1496   */\n      dup3\n        /* \"#utility.yul\":1486:1520   */\n      mstore\n        /* \"#utility.yul\":1417:1526   */\n      pop\n      pop\n      jump\t// out\n        /* \"#utility.yul\":1532:1742   */\n    tag_17:\n        /* \"#utility.yul\":1619:1623   */\n      0x00\n        /* \"#utility.yul\":1657:1659   */\n      0x20\n        /* \"#utility.yul\":1646:1655   */\n      dup3\n        /* \"#utility.yul\":1642:1660   */\n      add\n        /* \"#utility.yul\":1634:1660   */\n      swap1\n      pop\n        /* \"#utility.yul\":1670:1735   */\n      tag_139\n        /* \"#utility.yul\":1732:1733   */\n      0x00\n        /* \"#utility.yul\":1721:1730   */\n      dup4\n        /* \"#utility.yul\":1717:1734   */\n      add\n        /* \"#utility.yul\":1708:1714   */\n      dup5\n        /* \"#utility.yul\":1670:1735   */\n      tag_104\n      jump\t// in\n    tag_139:\n        /* \"#utility.yul\":1532:1742   */\n      swap3\n      swap2\n      pop\n      pop\n      jump\t// out\n        /* \"#utility.yul\":1748:2077   */\n    tag_20:\n        /* \"#utility.yul\":1807:1813   */\n      0x00\n        /* \"#utility.yul\":1856:1858   */\n      0x20\n        /* \"#utility.yul\":1844:1853   */\n      dup3\n        /* \"#utility.yul\":1835:1842   */\n      dup5\n        /* \"#utility.yul\":1831:1854   */\n      sub\n        /* \"#utility.yul\":1827:1859   */\n      slt\n        /* \"#utility.yul\":1824:1943   */\n      iszero\n      tag_141\n      jumpi\n        /* \"#utility.yul\":1862:1941   */\n      tag_142\n      tag_97\n      jump\t// in\n    tag_142:\n        /* \"#utility.yul\":1824:1943   */\n    tag_141:\n        /* \"#utility.yul\":1982:1983   */\n      0x00\n        /* \"#utility.yul\":2007:2060   */\n      tag_143\n        /* \"#utility.yul\":2052:2059   */\n      dup5\n        /* \"#utility.yul\":2043:2049   */\n      dup3\n        /* \"#utility.yul\":2032:2041   */\n      dup6\n        /* \"#utility.yul\":2028:2050   */\n      add\n        /* \"#utility.yul\":2007:2060   */\n      tag_102\n      jump\t// in\n    tag_143:\n        /* \"#utility.yul\":1997:2060   */\n      swap2\n      pop\n        /* \"#utility.yul\":1953:2070   */\n      pop\n        /* \"#utility.yul\":1748:2077   */\n      swap3\n      swap2\n      pop\n      pop\n      jump\t// out\n        /* \"#utility.yul\":2083:2263   */\n    tag_46:\n        /* \"#utility.yul\":2131:2208   */\n      0x4e487b7100000000000000000000000000000000000000000000000000000000\n        /* \"#utility.yul\":2128:2129   */\n      0x00\n        /* \"#utility.yul\":2121:2209   */\n      mstore\n        /* \"#utility.yul\":2228:2232   */\n      0x21\n        /* \"#utility.yul\":2225:2226   */\n      0x04\n        /* \"#utility.yul\":2218:2233   */\n      mstore\n        /* \"#utility.yul\":2252:2256   */\n      0x24\n        /* \"#utility.yul\":2249:2250   */\n      0x00\n        /* \"#utility.yul\":2242:2257   */\n      revert\n        /* \"#utility.yul\":2269:2382   */\n    tag_105:\n        /* \"#utility.yul\":2350:2351   */\n      0x03\n        /* \"#utility.yul\":2343:2348   */\n      dup2\n        /* \"#utility.yul\":2340:2352   */\n      lt\n        /* \"#utility.yul\":2330:2376   */\n      tag_146\n      jumpi\n        /* \"#utility.yul\":2356:2374   */\n      tag_147\n      tag_46\n      jump\t// in\n    tag_147:\n        /* \"#utility.yul\":2330:2376   */\n    tag_146:\n        /* \"#utility.yul\":2269:2382   */\n      pop\n      jump\t// out\n        /* \"#utility.yul\":2388:2515   */\n    tag_106:\n        /* \"#utility.yul\":2433:2440   */\n      0x00\n        /* \"#utility.yul\":2462:2467   */\n      dup2\n        /* \"#utility.yul\":2451:2467   */\n      swap1\n      pop\n        /* \"#utility.yul\":2468:2509   */\n      tag_149\n        /* \"#utility.yul\":2503:2508   */\n      dup3\n        /* \"#utility.yul\":2468:2509   */\n      tag_105\n      jump\t// in\n    tag_149:\n        /* \"#utility.yul\":2388:2515   */\n      swap2\n      swap1\n      pop\n      jump\t// out\n        /* \"#utility.yul\":2521:2648   */\n    tag_107:\n        /* \"#utility.yul\":2577:2586   */\n      0x00\n        /* \"#utility.yul\":2610:2642   */\n      tag_151\n        /* \"#utility.yul\":2636:2641   */\n      dup3\n        /* \"#utility.yul\":2610:2642   */\n      tag_106\n      jump\t// in\n    tag_151:\n        /* \"#utility.yul\":2597:2642   */\n      swap1\n      pop\n        /* \"#utility.yul\":2521:2648   */\n      swap2\n      swap1\n      pop\n      jump\t// out\n        /* \"#utility.yul\":2654:2797   */\n    tag_108:\n        /* \"#utility.yul\":2747:2790   */\n      tag_153\n        /* \"#utility.yul\":2784:2789   */\n      dup2\n        /* \"#utility.yul\":2747:2790   */\n      tag_107\n      jump\t// in\n    tag_153:\n        /* \"#utility.yul\":2742:2745   */\n      dup3\n        /* \"#utility.yul\":2735:2791   */\n      mstore\n        /* \"#utility.yul\":2654:2797   */\n      pop\n      pop\n      jump\t// out\n        /* \"#utility.yul\":2803:3037   */\n    tag_32:\n        /* \"#utility.yul\":2902:2906   */\n      0x00\n        /* \"#utility.yul\":2940:2942   */\n      0x20\n        /* \"#utility.yul\":2929:2938   */\n      dup3\n        /* \"#utility.yul\":2925:2943   */\n      add\n        /* \"#utility.yul\":2917:2943   */\n      swap1\n      pop\n        /* \"#utility.yul\":2953:3030   */\n      tag_155\n        /* \"#utility.yul\":3027:3028   */\n      0x00\n        /* \"#utility.yul\":3016:3025   */\n      dup4\n        /* \"#utility.yul\":3012:3029   */\n      add\n        /* \"#utility.yul\":3003:3009   */\n      dup5\n        /* \"#utility.yul\":2953:3030   */\n      tag_108\n      jump\t// in\n    tag_155:\n        /* \"#utility.yul\":2803:3037   */\n      swap3\n      swap2\n      pop\n      pop\n      jump\t// out\n        /* \"#utility.yul\":3043:3212   */\n    tag_109:\n        /* \"#utility.yul\":3127:3138   */\n      0x00\n        /* \"#utility.yul\":3161:3167   */\n      dup3\n        /* \"#utility.yul\":3156:3159   */\n      dup3\n        /* \"#utility.yul\":3149:3168   */\n      mstore\n        /* \"#utility.yul\":3201:3205   */\n      0x20\n        /* \"#utility.yul\":3196:3199   */\n      dup3\n        /* \"#utility.yul\":3192:3206   */\n      add\n        /* \"#utility.yul\":3177:3206   */\n      swap1\n      pop\n        /* \"#utility.yul\":3043:3212   */\n      swap3\n      swap2\n      pop\n      pop\n      jump\t// out\n        /* \"#utility.yul\":3218:3388   */\n    tag_110:\n        /* \"#utility.yul\":3358:3380   */\n      0x4f6e6c792070617469656e7420616c6c6f776564000000000000000000000000\n        /* \"#utility.yul\":3354:3355   */\n      0x00\n        /* \"#utility.yul\":3346:3352   */\n      dup3\n        /* \"#utility.yul\":3342:3356   */\n      add\n        /* \"#utility.yul\":3335:3381   */\n      mstore\n        /* \"#utility.yul\":3218:3388   */\n      pop\n      jump\t// out\n        /* \"#utility.yul\":3394:3760   */\n    tag_111:\n        /* \"#utility.yul\":3536:3539   */\n      0x00\n        /* \"#utility.yul\":3557:3624   */\n      tag_159\n        /* \"#utility.yul\":3621:3623   */\n      0x14\n        /* \"#utility.yul\":3616:3619   */\n      dup4\n        /* \"#utility.yul\":3557:3624   */\n      tag_109\n      jump\t// in\n    tag_159:\n        /* \"#utility.yul\":3550:3624   */\n      swap2\n      pop\n        /* \"#utility.yul\":3633:3726   */\n      tag_160\n        /* \"#utility.yul\":3722:3725   */\n      dup3\n        /* \"#utility.yul\":3633:3726   */\n      tag_110\n      jump\t// in\n    tag_160:\n        /* \"#utility.yul\":3751:3753   */\n      0x20\n        /* \"#utility.yul\":3746:3749   */\n      dup3\n        /* \"#utility.yul\":3742:3754   */\n      add\n        /* \"#utility.yul\":3735:3754   */\n      swap1\n      pop\n        /* \"#utility.yul\":3394:3760   */\n      swap2\n      swap1\n      pop\n      jump\t// out\n        /* \"#utility.yul\":3766:4185   */\n    tag_51:\n        /* \"#utility.yul\":3932:3936   */\n      0x00\n        /* \"#utility.yul\":3970:3972   */\n      0x20\n        /* \"#utility.yul\":3959:3968   */\n      dup3\n        /* \"#utility.yul\":3955:3973   */\n      add\n        /* \"#utility.yul\":3947:3973   */\n      swap1\n      pop\n        /* \"#utility.yul\":4019:4028   */\n      dup2\n        /* \"#utility.yul\":4013:4017   */\n      dup2\n        /* \"#utility.yul\":4009:4029   */\n      sub\n        /* \"#utility.yul\":4005:4006   */\n      0x00\n        /* \"#utility.yul\":3994:4003   */\n      dup4\n        /* \"#utility.yul\":3990:4007   */\n      add\n        /* \"#utility.yul\":3983:4030   */\n      mstore\n        /* \"#utility.yul\":4047:4178   */\n      tag_162\n        /* \"#utility.yul\":4173:4177   */\n      dup2\n        /* \"#utility.yul\":4047:4178   */\n      tag_111\n      jump\t// in\n    tag_162:\n        /* \"#utility.yul\":4039:4178   */\n      swap1\n      pop\n        /* \"#utility.yul\":3766:4185   */\n      swap2\n      swap1\n      pop\n      jump\t// out\n        /* \"#utility.yul\":4191:4368   */\n    tag_112:\n        /* \"#utility.yul\":4331:4360   */\n      0x5573657220616c726561647920686173207065726d697373696f6e0000000000\n        /* \"#utility.yul\":4327:4328   */\n      0x00\n        /* \"#utility.yul\":4319:4325   */\n      dup3\n        /* \"#utility.yul\":4315:4329   */\n      add\n        /* \"#utility.yul\":4308:4361   */\n      mstore\n        /* \"#utility.yul\":4191:4368   */\n      pop\n      jump\t// out\n        /* \"#utility.yul\":4374:4740   */\n    tag_113:\n        /* \"#utility.yul\":4516:4519   */\n      0x00\n        /* \"#utility.yul\":4537:4604   */\n      tag_165\n        /* \"#utility.yul\":4601:4603   */\n      0x1b\n        /* \"#utility.yul\":4596:4599   */\n      dup4\n        /* \"#utility.yul\":4537:4604   */\n      tag_109\n      jump\t// in\n    tag_165:\n        /* \"#utility.yul\":4530:4604   */\n      swap2\n      pop\n        /* \"#utility.yul\":4613:4706   */\n      tag_166\n        /* \"#utility.yul\":4702:4705   */\n      dup3\n        /* \"#utility.yul\":4613:4706   */\n      tag_112\n      jump\t// in\n    tag_166:\n        /* \"#utility.yul\":4731:4733   */\n      0x20\n        /* \"#utility.yul\":4726:4729   */\n      dup3\n        /* \"#utility.yul\":4722:4734   */\n      add\n        /* \"#utility.yul\":4715:4734   */\n      swap1\n      pop\n        /* \"#utility.yul\":4374:4740   */\n      swap2\n      swap1\n      pop\n      jump\t// out\n        /* \"#utility.yul\":4746:5165   */\n    tag_55:\n        /* \"#utility.yul\":4912:4916   */\n      0x00\n        /* \"#utility.yul\":4950:4952   */\n      0x20\n        /* \"#utility.yul\":4939:4948   */\n      dup3\n        /* \"#utility.yul\":4935:4953   */\n      add\n        /* \"#utility.yul\":4927:4953   */\n      swap1\n      pop\n        /* \"#utility.yul\":4999:5008   */\n      dup2\n        /* \"#utility.yul\":4993:4997   */\n      dup2\n        /* \"#utility.yul\":4989:5009   */\n      sub\n        /* \"#utility.yul\":4985:4986   */\n      0x00\n        /* \"#utility.yul\":4974:4983   */\n      dup4\n        /* \"#utility.yul\":4970:4987   */\n      add\n        /* \"#utility.yul\":4963:5010   */\n      mstore\n        /* \"#utility.yul\":5027:5158   */\n      tag_168\n        /* \"#utility.yul\":5153:5157   */\n      dup2\n        /* \"#utility.yul\":5027:5158   */\n      tag_113\n      jump\t// in\n    tag_168:\n        /* \"#utility.yul\":5019:5158   */\n      swap1\n      pop\n        /* \"#utility.yul\":4746:5165   */\n      swap2\n      swap1\n      pop\n      jump\t// out\n        /* \"#utility.yul\":5171:5339   */\n    tag_114:\n        /* \"#utility.yul\":5311:5331   */\n      0x416c726561647920726567697374657265640000000000000000000000000000\n        /* \"#utility.yul\":5307:5308   */\n      0x00\n        /* \"#utility.yul\":5299:5305   */\n      dup3\n        /* \"#utility.yul\":5295:5309   */\n      add\n        /* \"#utility.yul\":5288:5332   */\n      mstore\n        /* \"#utility.yul\":5171:5339   */\n      pop\n      jump\t// out\n        /* \"#utility.yul\":5345:5711   */\n    tag_115:\n        /* \"#utility.yul\":5487:5490   */\n      0x00\n        /* \"#utility.yul\":5508:5575   */\n      tag_171\n        /* \"#utility.yul\":5572:5574   */\n      0x12\n        /* \"#utility.yul\":5567:5570   */\n      dup4\n        /* \"#utility.yul\":5508:5575   */\n      tag_109\n      jump\t// in\n    tag_171:\n        /* \"#utility.yul\":5501:5575   */\n      swap2\n      pop\n        /* \"#utility.yul\":5584:5677   */\n      tag_172\n        /* \"#utility.yul\":5673:5676   */\n      dup3\n        /* \"#utility.yul\":5584:5677   */\n      tag_114\n      jump\t// in\n    tag_172:\n        /* \"#utility.yul\":5702:5704   */\n      0x20\n        /* \"#utility.yul\":5697:5700   */\n      dup3\n        /* \"#utility.yul\":5693:5705   */\n      add\n        /* \"#utility.yul\":5686:5705   */\n      swap1\n      pop\n        /* \"#utility.yul\":5345:5711   */\n      swap2\n      swap1\n      pop\n      jump\t// out\n        /* \"#utility.yul\":5717:6136   */\n    tag_63:\n        /* \"#utility.yul\":5883:5887   */\n      0x00\n        /* \"#utility.yul\":5921:5923   */\n      0x20\n        /* \"#utility.yul\":5910:5919   */\n      dup3\n        /* \"#utility.yul\":5906:5924   */\n      add\n        /* \"#utility.yul\":5898:5924   */\n      swap1\n      pop\n        /* \"#utility.yul\":5970:5979   */\n      dup2\n        /* \"#utility.yul\":5964:5968   */\n      dup2\n        /* \"#utility.yul\":5960:5980   */\n      sub\n        /* \"#utility.yul\":5956:5957   */\n      0x00\n        /* \"#utility.yul\":5945:5954   */\n      dup4\n        /* \"#utility.yul\":5941:5958   */\n      add\n        /* \"#utility.yul\":5934:5981   */\n      mstore\n        /* \"#utility.yul\":5998:6129   */\n      tag_174\n        /* \"#utility.yul\":6124:6128   */\n      dup2\n        /* \"#utility.yul\":5998:6129   */\n      tag_115\n      jump\t// in\n    tag_174:\n        /* \"#utility.yul\":5990:6129   */\n      swap1\n      pop\n        /* \"#utility.yul\":5717:6136   */\n      swap2\n      swap1\n      pop\n      jump\t// out\n        /* \"#utility.yul\":6142:6318   */\n    tag_116:\n        /* \"#utility.yul\":6282:6310   */\n      0x596f7520646f206e6f742068617665207065726d697373696f6e000000000000\n        /* \"#utility.yul\":6278:6279   */\n      0x00\n        /* \"#utility.yul\":6270:6276   */\n      dup3\n        /* \"#utility.yul\":6266:6280   */\n      add\n        /* \"#utility.yul\":6259:6311   */\n      mstore\n        /* \"#utility.yul\":6142:6318   */\n      pop\n      jump\t// out\n        /* \"#utility.yul\":6324:6690   */\n    tag_117:\n        /* \"#utility.yul\":6466:6469   */\n      0x00\n        /* \"#utility.yul\":6487:6554   */\n      tag_177\n        /* \"#utility.yul\":6551:6553   */\n      0x1a\n        /* \"#utility.yul\":6546:6549   */\n      dup4\n        /* \"#utility.yul\":6487:6554   */\n      tag_109\n      jump\t// in\n    tag_177:\n        /* \"#utility.yul\":6480:6554   */\n      swap2\n      pop\n        /* \"#utility.yul\":6563:6656   */\n      tag_178\n        /* \"#utility.yul\":6652:6655   */\n      dup3\n        /* \"#utility.yul\":6563:6656   */\n      tag_116\n      jump\t// in\n    tag_178:\n        /* \"#utility.yul\":6681:6683   */\n      0x20\n        /* \"#utility.yul\":6676:6679   */\n      dup3\n        /* \"#utility.yul\":6672:6684   */\n      add\n        /* \"#utility.yul\":6665:6684   */\n      swap1\n      pop\n        /* \"#utility.yul\":6324:6690   */\n      swap2\n      swap1\n      pop\n      jump\t// out\n        /* \"#utility.yul\":6696:7115   */\n    tag_86:\n        /* \"#utility.yul\":6862:6866   */\n      0x00\n        /* \"#utility.yul\":6900:6902   */\n      0x20\n        /* \"#utility.yul\":6889:6898   */\n      dup3\n        /* \"#utility.yul\":6885:6903   */\n      add\n        /* \"#utility.yul\":6877:6903   */\n      swap1\n      pop\n        /* \"#utility.yul\":6949:6958   */\n      dup2\n        /* \"#utility.yul\":6943:6947   */\n      dup2\n        /* \"#utility.yul\":6939:6959   */\n      sub\n        /* \"#utility.yul\":6935:6936   */\n      0x00\n        /* \"#utility.yul\":6924:6933   */\n      dup4\n        /* \"#utility.yul\":6920:6937   */\n      add\n        /* \"#utility.yul\":6913:6960   */\n      mstore\n        /* \"#utility.yul\":6977:7108   */\n      tag_180\n        /* \"#utility.yul\":7103:7107   */\n      dup2\n        /* \"#utility.yul\":6977:7108   */\n      tag_117\n      jump\t// in\n    tag_180:\n        /* \"#utility.yul\":6969:7108   */\n      swap1\n      pop\n        /* \"#utility.yul\":6696:7115   */\n      swap2\n      swap1\n      pop\n      jump\t// out\n\n    auxdata: 0xa26469706673582212206df282fadbcefee1fe2314f1dc5cff5eb08203d8675ed0c95b7649a5fbc8111b64736f6c634300081e0033\n}\n",
				"bytecode": {
					"linkReferences": {},
					"object": "6080604052348015600e575f5ffd5b50610cda8061001c5f395ff3fe608060405234801561000f575f5ffd5b5060043610610086575f3560e01c806399374642116100595780639937464214610110578063996440c614610140578063a3bf5b9a14610170578063a99ad4ee1461018c57610086565b80631a160fe91461008a5780632d8e3278146100ba5780636ba7fe7f146100d65780638f9c79ed146100e0575b5f5ffd5b6100a4600480360381019061009f91906109cc565b610196565b6040516100b19190610a24565b60405180910390f35b6100d460048036038101906100cf9190610a3d565b610224565b005b6100de61042f565b005b6100fa60048036038101906100f59190610a3d565b610543565b6040516101079190610a24565b60405180910390f35b61012a60048036038101906101259190610a3d565b6105bb565b6040516101379190610adb565b60405180910390f35b61015a60048036038101906101559190610a3d565b6105d7565b6040516101679190610a24565b60405180910390f35b61018a60048036038101906101859190610a3d565b61064e565b005b61019461085a565b005b5f60015f8473ffffffffffffffffffffffffffffffffffffffff1673ffffffffffffffffffffffffffffffffffffffff1681526020019081526020015f205f8373ffffffffffffffffffffffffffffffffffffffff1673ffffffffffffffffffffffffffffffffffffffff1681526020019081526020015f205f9054906101000a900460ff16905092915050565b6001600281111561023857610237610a68565b5b5f5f3373ffffffffffffffffffffffffffffffffffffffff1673ffffffffffffffffffffffffffffffffffffffff1681526020019081526020015f205f9054906101000a900460ff16600281111561029357610292610a68565b5b146102d3576040517f08c379a00000000000000000000000000000000000000000000000000000000081526004016102ca90610b4e565b60405180910390fd5b5f151560015f3373ffffffffffffffffffffffffffffffffffffffff1673ffffffffffffffffffffffffffffffffffffffff1681526020019081526020015f205f8373ffffffffffffffffffffffffffffffffffffffff1673ffffffffffffffffffffffffffffffffffffffff1681526020019081526020015f205f9054906101000a900460ff1615151461039d576040517f08c379a000000000000000000000000000000000000000000000000000000000815260040161039490610bb6565b60405180910390fd5b6001805f3373ffffffffffffffffffffffffffffffffffffffff1673ffffffffffffffffffffffffffffffffffffffff1681526020019081526020015f205f8373ffffffffffffffffffffffffffffffffffffffff1673ffffffffffffffffffffffffffffffffffffffff1681526020019081526020015f205f6101000a81548160ff02191690831515021790555050565b5f600281111561044257610441610a68565b5b5f5f3373ffffffffffffffffffffffffffffffffffffffff1673ffffffffffffffffffffffffffffffffffffffff1681526020019081526020015f205f9054906101000a900460ff16600281111561049d5761049c610a68565b5b146104dd576040517f08c379a00000000000000000000000000000000000000000000000000000000081526004016104d490610c1e565b60405180910390fd5b60025f5f3373ffffffffffffffffffffffffffffffffffffffff1673ffffffffffffffffffffffffffffffffffffffff1681526020019081526020015f205f6101000a81548160ff0219169083600281111561053c5761053b610a68565b5b0217905550565b5f6001600281111561055857610557610a68565b5b5f5f8473ffffffffffffffffffffffffffffffffffffffff1673ffffffffffffffffffffffffffffffffffffffff1681526020019081526020015f205f9054906101000a900460ff1660028111156105b3576105b2610a68565b5b149050919050565b5f602052805f5260405f205f915054906101000a900460ff1681565b5f6002808111156105eb576105ea610a68565b5b5f5f8473ffffffffffffffffffffffffffffffffffffffff1673ffffffffffffffffffffffffffffffffffffffff1681526020019081526020015f205f9054906101000a900460ff16600281111561064657610645610a68565b5b149050919050565b6001600281111561066257610661610a68565b5b5f5f3373ffffffffffffffffffffffffffffffffffffffff1673ffffffffffffffffffffffffffffffffffffffff1681526020019081526020015f205f9054906101000a900460ff1660028111156106bd576106bc610a68565b5b146106fd576040517f08c379a00000000000000000000000000000000000000000000000000000000081526004016106f490610b4e565b60405180910390fd5b6001151560015f3373ffffffffffffffffffffffffffffffffffffffff1673ffffffffffffffffffffffffffffffffffffffff1681526020019081526020015f205f8373ffffffffffffffffffffffffffffffffffffffff1673ffffffffffffffffffffffffffffffffffffffff1681526020019081526020015f205f9054906101000a900460ff161515146107c8576040517f08c379a00000000000000000000000000000000000000000000000000000000081526004016107bf90610c86565b60405180910390fd5b5f60015f3373ffffffffffffffffffffffffffffffffffffffff1673ffffffffffffffffffffffffffffffffffffffff1681526020019081526020015f205f8373ffffffffffffffffffffffffffffffffffffffff1673ffffffffffffffffffffffffffffffffffffffff1681526020019081526020015f205f6101000a81548160ff02191690831515021790555050565b5f600281111561086d5761086c610a68565b5b5f5f3373ffffffffffffffffffffffffffffffffffffffff1673ffffffffffffffffffffffffffffffffffffffff1681526020019081526020015f205f9054906101000a900460ff1660028111156108c8576108c7610a68565b5b14610908576040517f08c379a00000000000000000000000000000000000000000000000000000000081526004016108ff90610c1e565b60405180910390fd5b60015f5f3373ffffffffffffffffffffffffffffffffffffffff1673ffffffffffffffffffffffffffffffffffffffff1681526020019081526020015f205f6101000a81548160ff0219169083600281111561096757610966610a68565b5b0217905550565b5f5ffd5b5f73ffffffffffffffffffffffffffffffffffffffff82169050919050565b5f61099b82610972565b9050919050565b6109ab81610991565b81146109b5575f5ffd5b50565b5f813590506109c6816109a2565b92915050565b5f5f604083850312156109e2576109e161096e565b5b5f6109ef858286016109b8565b9250506020610a00858286016109b8565b9150509250929050565b5f8115159050919050565b610a1e81610a0a565b82525050565b5f602082019050610a375f830184610a15565b92915050565b5f60208284031215610a5257610a5161096e565b5b5f610a5f848285016109b8565b91505092915050565b7f4e487b71000000000000000000000000000000000000000000000000000000005f52602160045260245ffd5b60038110610aa657610aa5610a68565b5b50565b5f819050610ab682610a95565b919050565b5f610ac582610aa9565b9050919050565b610ad581610abb565b82525050565b5f602082019050610aee5f830184610acc565b92915050565b5f82825260208201905092915050565b7f4f6e6c792070617469656e7420616c6c6f7765640000000000000000000000005f82015250565b5f610b38601483610af4565b9150610b4382610b04565b602082019050919050565b5f6020820190508181035f830152610b6581610b2c565b9050919050565b7f5573657220616c726561647920686173207065726d697373696f6e00000000005f82015250565b5f610ba0601b83610af4565b9150610bab82610b6c565b602082019050919050565b5f6020820190508181035f830152610bcd81610b94565b9050919050565b7f416c7265616479207265676973746572656400000000000000000000000000005f82015250565b5f610c08601283610af4565b9150610c1382610bd4565b602082019050919050565b5f6020820190508181035f830152610c3581610bfc565b9050919050565b7f596f7520646f206e6f742068617665207065726d697373696f6e0000000000005f82015250565b5f610c70601a83610af4565b9150610c7b82610c3c565b602082019050919050565b5f6020820190508181035f830152610c9d81610c64565b905091905056fea26469706673582212206df282fadbcefee1fe2314f1dc5cff5eb08203d8675ed0c95b7649a5fbc8111b64736f6c634300081e0033",
					"opcodes": "PUSH1 0x80 PUSH1 0x40 MSTORE CALLVALUE DUP1 ISZERO PUSH1 0xE JUMPI PUSH0 PUSH0 REVERT JUMPDEST POP PUSH2 0xCDA DUP1 PUSH2 0x1C PUSH0 CODECOPY PUSH0 RETURN INVALID PUSH1 0x80 PUSH1 0x40 MSTORE CALLVALUE DUP1 ISZERO PUSH2 0xF JUMPI PUSH0 PUSH0 REVERT JUMPDEST POP PUSH1 0x4 CALLDATASIZE LT PUSH2 0x86 JUMPI PUSH0 CALLDATALOAD PUSH1 0xE0 SHR DUP1 PUSH4 0x99374642 GT PUSH2 0x59 JUMPI DUP1 PUSH4 0x99374642 EQ PUSH2 0x110 JUMPI DUP1 PUSH4 0x996440C6 EQ PUSH2 0x140 JUMPI DUP1 PUSH4 0xA3BF5B9A EQ PUSH2 0x170 JUMPI DUP1 PUSH4 0xA99AD4EE EQ PUSH2 0x18C JUMPI PUSH2 0x86 JUMP JUMPDEST DUP1 PUSH4 0x1A160FE9 EQ PUSH2 0x8A JUMPI DUP1 PUSH4 0x2D8E3278 EQ PUSH2 0xBA JUMPI DUP1 PUSH4 0x6BA7FE7F EQ PUSH2 0xD6 JUMPI DUP1 PUSH4 0x8F9C79ED EQ PUSH2 0xE0 JUMPI JUMPDEST PUSH0 PUSH0 REVERT JUMPDEST PUSH2 0xA4 PUSH1 0x4 DUP1 CALLDATASIZE SUB DUP2 ADD SWAP1 PUSH2 0x9F SWAP2 SWAP1 PUSH2 0x9CC JUMP JUMPDEST PUSH2 0x196 JUMP JUMPDEST PUSH1 0x40 MLOAD PUSH2 0xB1 SWAP2 SWAP1 PUSH2 0xA24 JUMP JUMPDEST PUSH1 0x40 MLOAD DUP1 SWAP2 SUB SWAP1 RETURN JUMPDEST PUSH2 0xD4 PUSH1 0x4 DUP1 CALLDATASIZE SUB DUP2 ADD SWAP1 PUSH2 0xCF SWAP2 SWAP1 PUSH2 0xA3D JUMP JUMPDEST PUSH2 0x224 JUMP JUMPDEST STOP JUMPDEST PUSH2 0xDE PUSH2 0x42F JUMP JUMPDEST STOP JUMPDEST PUSH2 0xFA PUSH1 0x4 DUP1 CALLDATASIZE SUB DUP2 ADD SWAP1 PUSH2 0xF5 SWAP2 SWAP1 PUSH2 0xA3D JUMP JUMPDEST PUSH2 0x543 JUMP JUMPDEST PUSH1 0x40 MLOAD PUSH2 0x107 SWAP2 SWAP1 PUSH2 0xA24 JUMP JUMPDEST PUSH1 0x40 MLOAD DUP1 SWAP2 SUB SWAP1 RETURN JUMPDEST PUSH2 0x12A PUSH1 0x4 DUP1 CALLDATASIZE SUB DUP2 ADD SWAP1 PUSH2 0x125 SWAP2 SWAP1 PUSH2 0xA3D JUMP JUMPDEST PUSH2 0x5BB JUMP JUMPDEST PUSH1 0x40 MLOAD PUSH2 0x137 SWAP2 SWAP1 PUSH2 0xADB JUMP JUMPDEST PUSH1 0x40 MLOAD DUP1 SWAP2 SUB SWAP1 RETURN JUMPDEST PUSH2 0x15A PUSH1 0x4 DUP1 CALLDATASIZE SUB DUP2 ADD SWAP1 PUSH2 0x155 SWAP2 SWAP1 PUSH2 0xA3D JUMP JUMPDEST PUSH2 0x5D7 JUMP JUMPDEST PUSH1 0x40 MLOAD PUSH2 0x167 SWAP2 SWAP1 PUSH2 0xA24 JUMP JUMPDEST PUSH1 0x40 MLOAD DUP1 SWAP2 SUB SWAP1 RETURN JUMPDEST PUSH2 0x18A PUSH1 0x4 DUP1 CALLDATASIZE SUB DUP2 ADD SWAP1 PUSH2 0x185 SWAP2 SWAP1 PUSH2 0xA3D JUMP JUMPDEST PUSH2 0x64E JUMP JUMPDEST STOP JUMPDEST PUSH2 0x194 PUSH2 0x85A JUMP JUMPDEST STOP JUMPDEST PUSH0 PUSH1 0x1 PUSH0 DUP5 PUSH20 0xFFFFFFFFFFFFFFFFFFFFFFFFFFFFFFFFFFFFFFFF AND PUSH20 0xFFFFFFFFFFFFFFFFFFFFFFFFFFFFFFFFFFFFFFFF AND DUP2 MSTORE PUSH1 0x20 ADD SWAP1 DUP2 MSTORE PUSH1 0x20 ADD PUSH0 KECCAK256 PUSH0 DUP4 PUSH20 0xFFFFFFFFFFFFFFFFFFFFFFFFFFFFFFFFFFFFFFFF AND PUSH20 0xFFFFFFFFFFFFFFFFFFFFFFFFFFFFFFFFFFFFFFFF AND DUP2 MSTORE PUSH1 0x20 ADD SWAP1 DUP2 MSTORE PUSH1 0x20 ADD PUSH0 KECCAK256 PUSH0 SWAP1 SLOAD SWAP1 PUSH2 0x100 EXP SWAP1 DIV PUSH1 0xFF AND SWAP1 POP SWAP3 SWAP2 POP POP JUMP JUMPDEST PUSH1 0x1 PUSH1 0x2 DUP2 GT ISZERO PUSH2 0x238 JUMPI PUSH2 0x237 PUSH2 0xA68 JUMP JUMPDEST JUMPDEST PUSH0 PUSH0 CALLER PUSH20 0xFFFFFFFFFFFFFFFFFFFFFFFFFFFFFFFFFFFFFFFF AND PUSH20 0xFFFFFFFFFFFFFFFFFFFFFFFFFFFFFFFFFFFFFFFF AND DUP2 MSTORE PUSH1 0x20 ADD SWAP1 DUP2 MSTORE PUSH1 0x20 ADD PUSH0 KECCAK256 PUSH0 SWAP1 SLOAD SWAP1 PUSH2 0x100 EXP SWAP1 DIV PUSH1 0xFF AND PUSH1 0x2 DUP2 GT ISZERO PUSH2 0x293 JUMPI PUSH2 0x292 PUSH2 0xA68 JUMP JUMPDEST JUMPDEST EQ PUSH2 0x2D3 JUMPI PUSH1 0x40 MLOAD PUSH32 0x8C379A000000000000000000000000000000000000000000000000000000000 DUP2 MSTORE PUSH1 0x4 ADD PUSH2 0x2CA SWAP1 PUSH2 0xB4E JUMP JUMPDEST PUSH1 0x40 MLOAD DUP1 SWAP2 SUB SWAP1 REVERT JUMPDEST PUSH0 ISZERO ISZERO PUSH1 0x1 PUSH0 CALLER PUSH20 0xFFFFFFFFFFFFFFFFFFFFFFFFFFFFFFFFFFFFFFFF AND PUSH20 0xFFFFFFFFFFFFFFFFFFFFFFFFFFFFFFFFFFFFFFFF AND DUP2 MSTORE PUSH1 0x20 ADD SWAP1 DUP2 MSTORE PUSH1 0x20 ADD PUSH0 KECCAK256 PUSH0 DUP4 PUSH20 0xFFFFFFFFFFFFFFFFFFFFFFFFFFFFFFFFFFFFFFFF AND PUSH20 0xFFFFFFFFFFFFFFFFFFFFFFFFFFFFFFFFFFFFFFFF AND DUP2 MSTORE PUSH1 0x20 ADD SWAP1 DUP2 MSTORE PUSH1 0x20 ADD PUSH0 KECCAK256 PUSH0 SWAP1 SLOAD SWAP1 PUSH2 0x100 EXP SWAP1 DIV PUSH1 0xFF AND ISZERO ISZERO EQ PUSH2 0x39D JUMPI PUSH1 0x40 MLOAD PUSH32 0x8C379A000000000000000000000000000000000000000000000000000000000 DUP2 MSTORE PUSH1 0x4 ADD PUSH2 0x394 SWAP1 PUSH2 0xBB6 JUMP JUMPDEST PUSH1 0x40 MLOAD DUP1 SWAP2 SUB SWAP1 REVERT JUMPDEST PUSH1 0x1 DUP1 PUSH0 CALLER PUSH20 0xFFFFFFFFFFFFFFFFFFFFFFFFFFFFFFFFFFFFFFFF AND PUSH20 0xFFFFFFFFFFFFFFFFFFFFFFFFFFFFFFFFFFFFFFFF AND DUP2 MSTORE PUSH1 0x20 ADD SWAP1 DUP2 MSTORE PUSH1 0x20 ADD PUSH0 KECCAK256 PUSH0 DUP4 PUSH20 0xFFFFFFFFFFFFFFFFFFFFFFFFFFFFFFFFFFFFFFFF AND PUSH20 0xFFFFFFFFFFFFFFFFFFFFFFFFFFFFFFFFFFFFFFFF AND DUP2 MSTORE PUSH1 0x20 ADD SWAP1 DUP2 MSTORE PUSH1 0x20 ADD PUSH0 KECCAK256 PUSH0 PUSH2 0x100 EXP DUP2 SLOAD DUP2 PUSH1 0xFF MUL NOT AND SWAP1 DUP4 ISZERO ISZERO MUL OR SWAP1 SSTORE POP POP JUMP JUMPDEST PUSH0 PUSH1 0x2 DUP2 GT ISZERO PUSH2 0x442 JUMPI PUSH2 0x441 PUSH2 0xA68 JUMP JUMPDEST JUMPDEST PUSH0 PUSH0 CALLER PUSH20 0xFFFFFFFFFFFFFFFFFFFFFFFFFFFFFFFFFFFFFFFF AND PUSH20 0xFFFFFFFFFFFFFFFFFFFFFFFFFFFFFFFFFFFFFFFF AND DUP2 MSTORE PUSH1 0x20 ADD SWAP1 DUP2 MSTORE PUSH1 0x20 ADD PUSH0 KECCAK256 PUSH0 SWAP1 SLOAD SWAP1 PUSH2 0x100 EXP SWAP1 DIV PUSH1 0xFF AND PUSH1 0x2 DUP2 GT ISZERO PUSH2 0x49D JUMPI PUSH2 0x49C PUSH2 0xA68 JUMP JUMPDEST JUMPDEST EQ PUSH2 0x4DD JUMPI PUSH1 0x40 MLOAD PUSH32 0x8C379A000000000000000000000000000000000000000000000000000000000 DUP2 MSTORE PUSH1 0x4 ADD PUSH2 0x4D4 SWAP1 PUSH2 0xC1E JUMP JUMPDEST PUSH1 0x40 MLOAD DUP1 SWAP2 SUB SWAP1 REVERT JUMPDEST PUSH1 0x2 PUSH0 PUSH0 CALLER PUSH20 0xFFFFFFFFFFFFFFFFFFFFFFFFFFFFFFFFFFFFFFFF AND PUSH20 0xFFFFFFFFFFFFFFFFFFFFFFFFFFFFFFFFFFFFFFFF AND DUP2 MSTORE PUSH1 0x20 ADD SWAP1 DUP2 MSTORE PUSH1 0x20 ADD PUSH0 KECCAK256 PUSH0 PUSH2 0x100 EXP DUP2 SLOAD DUP2 PUSH1 0xFF MUL NOT AND SWAP1 DUP4 PUSH1 0x2 DUP2 GT ISZERO PUSH2 0x53C JUMPI PUSH2 0x53B PUSH2 0xA68 JUMP JUMPDEST JUMPDEST MUL OR SWAP1 SSTORE POP JUMP JUMPDEST PUSH0 PUSH1 0x1 PUSH1 0x2 DUP2 GT ISZERO PUSH2 0x558 JUMPI PUSH2 0x557 PUSH2 0xA68 JUMP JUMPDEST JUMPDEST PUSH0 PUSH0 DUP5 PUSH20 0xFFFFFFFFFFFFFFFFFFFFFFFFFFFFFFFFFFFFFFFF AND PUSH20 0xFFFFFFFFFFFFFFFFFFFFFFFFFFFFFFFFFFFFFFFF AND DUP2 MSTORE PUSH1 0x20 ADD SWAP1 DUP2 MSTORE PUSH1 0x20 ADD PUSH0 KECCAK256 PUSH0 SWAP1 SLOAD SWAP1 PUSH2 0x100 EXP SWAP1 DIV PUSH1 0xFF AND PUSH1 0x2 DUP2 GT ISZERO PUSH2 0x5B3 JUMPI PUSH2 0x5B2 PUSH2 0xA68 JUMP JUMPDEST JUMPDEST EQ SWAP1 POP SWAP2 SWAP1 POP JUMP JUMPDEST PUSH0 PUSH1 0x20 MSTORE DUP1 PUSH0 MSTORE PUSH1 0x40 PUSH0 KECCAK256 PUSH0 SWAP2 POP SLOAD SWAP1 PUSH2 0x100 EXP SWAP1 DIV PUSH1 0xFF AND DUP2 JUMP JUMPDEST PUSH0 PUSH1 0x2 DUP1 DUP2 GT ISZERO PUSH2 0x5EB JUMPI PUSH2 0x5EA PUSH2 0xA68 JUMP JUMPDEST JUMPDEST PUSH0 PUSH0 DUP5 PUSH20 0xFFFFFFFFFFFFFFFFFFFFFFFFFFFFFFFFFFFFFFFF AND PUSH20 0xFFFFFFFFFFFFFFFFFFFFFFFFFFFFFFFFFFFFFFFF AND DUP2 MSTORE PUSH1 0x20 ADD SWAP1 DUP2 MSTORE PUSH1 0x20 ADD PUSH0 KECCAK256 PUSH0 SWAP1 SLOAD SWAP1 PUSH2 0x100 EXP SWAP1 DIV PUSH1 0xFF AND PUSH1 0x2 DUP2 GT ISZERO PUSH2 0x646 JUMPI PUSH2 0x645 PUSH2 0xA68 JUMP JUMPDEST JUMPDEST EQ SWAP1 POP SWAP2 SWAP1 POP JUMP JUMPDEST PUSH1 0x1 PUSH1 0x2 DUP2 GT ISZERO PUSH2 0x662 JUMPI PUSH2 0x661 PUSH2 0xA68 JUMP JUMPDEST JUMPDEST PUSH0 PUSH0 CALLER PUSH20 0xFFFFFFFFFFFFFFFFFFFFFFFFFFFFFFFFFFFFFFFF AND PUSH20 0xFFFFFFFFFFFFFFFFFFFFFFFFFFFFFFFFFFFFFFFF AND DUP2 MSTORE PUSH1 0x20 ADD SWAP1 DUP2 MSTORE PUSH1 0x20 ADD PUSH0 KECCAK256 PUSH0 SWAP1 SLOAD SWAP1 PUSH2 0x100 EXP SWAP1 DIV PUSH1 0xFF AND PUSH1 0x2 DUP2 GT ISZERO PUSH2 0x6BD JUMPI PUSH2 0x6BC PUSH2 0xA68 JUMP JUMPDEST JUMPDEST EQ PUSH2 0x6FD JUMPI PUSH1 0x40 MLOAD PUSH32 0x8C379A000000000000000000000000000000000000000000000000000000000 DUP2 MSTORE PUSH1 0x4 ADD PUSH2 0x6F4 SWAP1 PUSH2 0xB4E JUMP JUMPDEST PUSH1 0x40 MLOAD DUP1 SWAP2 SUB SWAP1 REVERT JUMPDEST PUSH1 0x1 ISZERO ISZERO PUSH1 0x1 PUSH0 CALLER PUSH20 0xFFFFFFFFFFFFFFFFFFFFFFFFFFFFFFFFFFFFFFFF AND PUSH20 0xFFFFFFFFFFFFFFFFFFFFFFFFFFFFFFFFFFFFFFFF AND DUP2 MSTORE PUSH1 0x20 ADD SWAP1 DUP2 MSTORE PUSH1 0x20 ADD PUSH0 KECCAK256 PUSH0 DUP4 PUSH20 0xFFFFFFFFFFFFFFFFFFFFFFFFFFFFFFFFFFFFFFFF AND PUSH20 0xFFFFFFFFFFFFFFFFFFFFFFFFFFFFFFFFFFFFFFFF AND DUP2 MSTORE PUSH1 0x20 ADD SWAP1 DUP2 MSTORE PUSH1 0x20 ADD PUSH0 KECCAK256 PUSH0 SWAP1 SLOAD SWAP1 PUSH2 0x100 EXP SWAP1 DIV PUSH1 0xFF AND ISZERO ISZERO EQ PUSH2 0x7C8 JUMPI PUSH1 0x40 MLOAD PUSH32 0x8C379A000000000000000000000000000000000000000000000000000000000 DUP2 MSTORE PUSH1 0x4 ADD PUSH2 0x7BF SWAP1 PUSH2 0xC86 JUMP JUMPDEST PUSH1 0x40 MLOAD DUP1 SWAP2 SUB SWAP1 REVERT JUMPDEST PUSH0 PUSH1 0x1 PUSH0 CALLER PUSH20 0xFFFFFFFFFFFFFFFFFFFFFFFFFFFFFFFFFFFFFFFF AND PUSH20 0xFFFFFFFFFFFFFFFFFFFFFFFFFFFFFFFFFFFFFFFF AND DUP2 MSTORE PUSH1 0x20 ADD SWAP1 DUP2 MSTORE PUSH1 0x20 ADD PUSH0 KECCAK256 PUSH0 DUP4 PUSH20 0xFFFFFFFFFFFFFFFFFFFFFFFFFFFFFFFFFFFFFFFF AND PUSH20 0xFFFFFFFFFFFFFFFFFFFFFFFFFFFFFFFFFFFFFFFF AND DUP2 MSTORE PUSH1 0x20 ADD SWAP1 DUP2 MSTORE PUSH1 0x20 ADD PUSH0 KECCAK256 PUSH0 PUSH2 0x100 EXP DUP2 SLOAD DUP2 PUSH1 0xFF MUL NOT AND SWAP1 DUP4 ISZERO ISZERO MUL OR SWAP1 SSTORE POP POP JUMP JUMPDEST PUSH0 PUSH1 0x2 DUP2 GT ISZERO PUSH2 0x86D JUMPI PUSH2 0x86C PUSH2 0xA68 JUMP JUMPDEST JUMPDEST PUSH0 PUSH0 CALLER PUSH20 0xFFFFFFFFFFFFFFFFFFFFFFFFFFFFFFFFFFFFFFFF AND PUSH20 0xFFFFFFFFFFFFFFFFFFFFFFFFFFFFFFFFFFFFFFFF AND DUP2 MSTORE PUSH1 0x20 ADD SWAP1 DUP2 MSTORE PUSH1 0x20 ADD PUSH0 KECCAK256 PUSH0 SWAP1 SLOAD SWAP1 PUSH2 0x100 EXP SWAP1 DIV PUSH1 0xFF AND PUSH1 0x2 DUP2 GT ISZERO PUSH2 0x8C8 JUMPI PUSH2 0x8C7 PUSH2 0xA68 JUMP JUMPDEST JUMPDEST EQ PUSH2 0x908 JUMPI PUSH1 0x40 MLOAD PUSH32 0x8C379A000000000000000000000000000000000000000000000000000000000 DUP2 MSTORE PUSH1 0x4 ADD PUSH2 0x8FF SWAP1 PUSH2 0xC1E JUMP JUMPDEST PUSH1 0x40 MLOAD DUP1 SWAP2 SUB SWAP1 REVERT JUMPDEST PUSH1 0x1 PUSH0 PUSH0 CALLER PUSH20 0xFFFFFFFFFFFFFFFFFFFFFFFFFFFFFFFFFFFFFFFF AND PUSH20 0xFFFFFFFFFFFFFFFFFFFFFFFFFFFFFFFFFFFFFFFF AND DUP2 MSTORE PUSH1 0x20 ADD SWAP1 DUP2 MSTORE PUSH1 0x20 ADD PUSH0 KECCAK256 PUSH0 PUSH2 0x100 EXP DUP2 SLOAD DUP2 PUSH1 0xFF MUL NOT AND SWAP1 DUP4 PUSH1 0x2 DUP2 GT ISZERO PUSH2 0x967 JUMPI PUSH2 0x966 PUSH2 0xA68 JUMP JUMPDEST JUMPDEST MUL OR SWAP1 SSTORE POP JUMP JUMPDEST PUSH0 PUSH0 REVERT JUMPDEST PUSH0 PUSH20 0xFFFFFFFFFFFFFFFFFFFFFFFFFFFFFFFFFFFFFFFF DUP3 AND SWAP1 POP SWAP2 SWAP1 POP JUMP JUMPDEST PUSH0 PUSH2 0x99B DUP3 PUSH2 0x972 JUMP JUMPDEST SWAP1 POP SWAP2 SWAP1 POP JUMP JUMPDEST PUSH2 0x9AB DUP2 PUSH2 0x991 JUMP JUMPDEST DUP2 EQ PUSH2 0x9B5 JUMPI PUSH0 PUSH0 REVERT JUMPDEST POP JUMP JUMPDEST PUSH0 DUP2 CALLDATALOAD SWAP1 POP PUSH2 0x9C6 DUP2 PUSH2 0x9A2 JUMP JUMPDEST SWAP3 SWAP2 POP POP JUMP JUMPDEST PUSH0 PUSH0 PUSH1 0x40 DUP4 DUP6 SUB SLT ISZERO PUSH2 0x9E2 JUMPI PUSH2 0x9E1 PUSH2 0x96E JUMP JUMPDEST JUMPDEST PUSH0 PUSH2 0x9EF DUP6 DUP3 DUP7 ADD PUSH2 0x9B8 JUMP JUMPDEST SWAP3 POP POP PUSH1 0x20 PUSH2 0xA00 DUP6 DUP3 DUP7 ADD PUSH2 0x9B8 JUMP JUMPDEST SWAP2 POP POP SWAP3 POP SWAP3 SWAP1 POP JUMP JUMPDEST PUSH0 DUP2 ISZERO ISZERO SWAP1 POP SWAP2 SWAP1 POP JUMP JUMPDEST PUSH2 0xA1E DUP2 PUSH2 0xA0A JUMP JUMPDEST DUP3 MSTORE POP POP JUMP JUMPDEST PUSH0 PUSH1 0x20 DUP3 ADD SWAP1 POP PUSH2 0xA37 PUSH0 DUP4 ADD DUP5 PUSH2 0xA15 JUMP JUMPDEST SWAP3 SWAP2 POP POP JUMP JUMPDEST PUSH0 PUSH1 0x20 DUP3 DUP5 SUB SLT ISZERO PUSH2 0xA52 JUMPI PUSH2 0xA51 PUSH2 0x96E JUMP JUMPDEST JUMPDEST PUSH0 PUSH2 0xA5F DUP5 DUP3 DUP6 ADD PUSH2 0x9B8 JUMP JUMPDEST SWAP2 POP POP SWAP3 SWAP2 POP POP JUMP JUMPDEST PUSH32 0x4E487B7100000000000000000000000000000000000000000000000000000000 PUSH0 MSTORE PUSH1 0x21 PUSH1 0x4 MSTORE PUSH1 0x24 PUSH0 REVERT JUMPDEST PUSH1 0x3 DUP2 LT PUSH2 0xAA6 JUMPI PUSH2 0xAA5 PUSH2 0xA68 JUMP JUMPDEST JUMPDEST POP JUMP JUMPDEST PUSH0 DUP2 SWAP1 POP PUSH2 0xAB6 DUP3 PUSH2 0xA95 JUMP JUMPDEST SWAP2 SWAP1 POP JUMP JUMPDEST PUSH0 PUSH2 0xAC5 DUP3 PUSH2 0xAA9 JUMP JUMPDEST SWAP1 POP SWAP2 SWAP1 POP JUMP JUMPDEST PUSH2 0xAD5 DUP2 PUSH2 0xABB JUMP JUMPDEST DUP3 MSTORE POP POP JUMP JUMPDEST PUSH0 PUSH1 0x20 DUP3 ADD SWAP1 POP PUSH2 0xAEE PUSH0 DUP4 ADD DUP5 PUSH2 0xACC JUMP JUMPDEST SWAP3 SWAP2 POP POP JUMP JUMPDEST PUSH0 DUP3 DUP3 MSTORE PUSH1 0x20 DUP3 ADD SWAP1 POP SWAP3 SWAP2 POP POP JUMP JUMPDEST PUSH32 0x4F6E6C792070617469656E7420616C6C6F776564000000000000000000000000 PUSH0 DUP3 ADD MSTORE POP JUMP JUMPDEST PUSH0 PUSH2 0xB38 PUSH1 0x14 DUP4 PUSH2 0xAF4 JUMP JUMPDEST SWAP2 POP PUSH2 0xB43 DUP3 PUSH2 0xB04 JUMP JUMPDEST PUSH1 0x20 DUP3 ADD SWAP1 POP SWAP2 SWAP1 POP JUMP JUMPDEST PUSH0 PUSH1 0x20 DUP3 ADD SWAP1 POP DUP2 DUP2 SUB PUSH0 DUP4 ADD MSTORE PUSH2 0xB65 DUP2 PUSH2 0xB2C JUMP JUMPDEST SWAP1 POP SWAP2 SWAP1 POP JUMP JUMPDEST PUSH32 0x5573657220616C726561647920686173207065726D697373696F6E0000000000 PUSH0 DUP3 ADD MSTORE POP JUMP JUMPDEST PUSH0 PUSH2 0xBA0 PUSH1 0x1B DUP4 PUSH2 0xAF4 JUMP JUMPDEST SWAP2 POP PUSH2 0xBAB DUP3 PUSH2 0xB6C JUMP JUMPDEST PUSH1 0x20 DUP3 ADD SWAP1 POP SWAP2 SWAP1 POP JUMP JUMPDEST PUSH0 PUSH1 0x20 DUP3 ADD SWAP1 POP DUP2 DUP2 SUB PUSH0 DUP4 ADD MSTORE PUSH2 0xBCD DUP2 PUSH2 0xB94 JUMP JUMPDEST SWAP1 POP SWAP2 SWAP1 POP JUMP JUMPDEST PUSH32 0x416C726561647920726567697374657265640000000000000000000000000000 PUSH0 DUP3 ADD MSTORE POP JUMP JUMPDEST PUSH0 PUSH2 0xC08 PUSH1 0x12 DUP4 PUSH2 0xAF4 JUMP JUMPDEST SWAP2 POP PUSH2 0xC13 DUP3 PUSH2 0xBD4 JUMP JUMPDEST PUSH1 0x20 DUP3 ADD SWAP1 POP SWAP2 SWAP1 POP JUMP JUMPDEST PUSH0 PUSH1 0x20 DUP3 ADD SWAP1 POP DUP2 DUP2 SUB PUSH0 DUP4 ADD MSTORE PUSH2 0xC35 DUP2 PUSH2 0xBFC JUMP JUMPDEST SWAP1 POP SWAP2 SWAP1 POP JUMP JUMPDEST PUSH32 0x596F7520646F206E6F742068617665207065726D697373696F6E000000000000 PUSH0 DUP3 ADD MSTORE POP JUMP JUMPDEST PUSH0 PUSH2 0xC70 PUSH1 0x1A DUP4 PUSH2 0xAF4 JUMP JUMPDEST SWAP2 POP PUSH2 0xC7B DUP3 PUSH2 0xC3C JUMP JUMPDEST PUSH1 0x20 DUP3 ADD SWAP1 POP SWAP2 SWAP1 POP JUMP JUMPDEST PUSH0 PUSH1 0x20 DUP3 ADD SWAP1 POP DUP2 DUP2 SUB PUSH0 DUP4 ADD MSTORE PUSH2 0xC9D DUP2 PUSH2 0xC64 JUMP JUMPDEST SWAP1 POP SWAP2 SWAP1 POP JUMP INVALID LOG2 PUSH5 0x6970667358 0x22 SLT KECCAK256 PUSH14 0xF282FADBCEFEE1FE2314F1DC5CFF MCOPY 0xB0 DUP3 SUB 0xD8 PUSH8 0x5ED0C95B7649A5FB 0xC8 GT SHL PUSH5 0x736F6C6343 STOP ADDMOD 0x1E STOP CALLER "
				},
				"gasEstimates": {
					"creation": {
						"codeDepositCost": "658000",
						"executionCost": "687",
						"totalCost": "658687"
					},
					"external": {
						"checkPermission(address,address)": "infinite",
						"grantPermission(address)": "29553",
						"isDoctor(address)": "2949",
						"isPatient(address)": "2994",
						"registerAsDoctor()": "26855",
						"registerAsPatient()": "26876",
						"revokePermission(address)": "29574",
						"roles(address)": "2920"
					}
				},
				"methodIdentifiers": {
					"checkPermission(address,address)": "1a160fe9",
					"grantPermission(address)": "2d8e3278",
					"isDoctor(address)": "996440c6",
					"isPatient(address)": "8f9c79ed",
					"registerAsDoctor()": "6ba7fe7f",
					"registerAsPatient()": "a99ad4ee",
					"revokePermission(address)": "a3bf5b9a",
					"roles(address)": "99374642"
				}
			},
			"storageLayout": {
				"storage": [
					{
						"astId": 135,
						"contract": "contracts/permission/PermissionControl.sol:PermissionControl",
						"label": "roles",
						"offset": 0,
						"slot": "0",
						"type": "t_mapping(t_address,t_enum(Role)130)"
					},
					{
						"astId": 19,
						"contract": "contracts/permission/PermissionControl.sol:PermissionControl",
						"label": "permissions",
						"offset": 0,
						"slot": "1",
						"type": "t_mapping(t_address,t_mapping(t_address,t_bool))"
					}
				],
				"types": {
					"t_address": {
						"encoding": "inplace",
						"label": "address",
						"numberOfBytes": "20"
					},
					"t_bool": {
						"encoding": "inplace",
						"label": "bool",
						"numberOfBytes": "1"
					},
					"t_enum(Role)130": {
						"encoding": "inplace",
						"label": "enum UserRegistry.Role",
						"numberOfBytes": "1"
					},
					"t_mapping(t_address,t_bool)": {
						"encoding": "mapping",
						"key": "t_address",
						"label": "mapping(address => bool)",
						"numberOfBytes": "32",
						"value": "t_bool"
					},
					"t_mapping(t_address,t_enum(Role)130)": {
						"encoding": "mapping",
						"key": "t_address",
						"label": "mapping(address => enum UserRegistry.Role)",
						"numberOfBytes": "32",
						"value": "t_enum(Role)130"
					},
					"t_mapping(t_address,t_mapping(t_address,t_bool))": {
						"encoding": "mapping",
						"key": "t_address",
						"label": "mapping(address => mapping(address => bool))",
						"numberOfBytes": "32",
						"value": "t_mapping(t_address,t_bool)"
					}
				}
			},
			"userdoc": {
				"kind": "user",
				"methods": {},
				"version": 1
			}
		}
	}
}