{
	"contracts/user/UserRegistry.sol": {
		"UserRegistry": {
			"abi": [
				{
					"inputs": [
						{
							"internalType": "address",
							"name": "user",
							"type": "address"
						}
					],
					"name": "isDoctor",
					"outputs": [
						{
							"internalType": "bool",
							"name": "",
							"type": "bool"
						}
					],
					"stateMutability": "view",
					"type": "function"
				},
				{
					"inputs": [
						{
							"internalType": "address",
							"name": "user",
							"type": "address"
						}
					],
					"name": "isPatient",
					"outputs": [
						{
							"internalType": "bool",
							"name": "",
							"type": "bool"
						}
					],
					"stateMutability": "view",
					"type": "function"
				},
				{
					"inputs": [],
					"name": "registerAsDoctor",
					"outputs": [],
					"stateMutability": "nonpayable",
					"type": "function"
				},
				{
					"inputs": [],
					"name": "registerAsPatient",
					"outputs": [],
					"stateMutability": "nonpayable",
					"type": "function"
				},
				{
					"inputs": [
						{
							"internalType": "address",
							"name": "",
							"type": "address"
						}
					],
					"name": "roles",
					"outputs": [
						{
							"internalType": "enum UserRegistry.Role",
							"name": "",
							"type": "uint8"
						}
					],
					"stateMutability": "view",
					"type": "function"
				}
			],
			"devdoc": {
				"kind": "dev",
				"methods": {},
				"version": 1
			},
			"evm": {
				"assembly": "    /* \"contracts/user/UserRegistry.sol\":58:723  contract UserRegistry {... */\n  mstore(0x40, 0x80)\n  callvalue\n  dup1\n  iszero\n  tag_1\n  jumpi\n  revert(0x00, 0x00)\ntag_1:\n  pop\n  dataSize(sub_0)\n  dup1\n  dataOffset(sub_0)\n  0x00\n  codecopy\n  0x00\n  return\nstop\n\nsub_0: assembly {\n        /* \"contracts/user/UserRegistry.sol\":58:723  contract UserRegistry {... */\n      mstore(0x40, 0x80)\n      callvalue\n      dup1\n      iszero\n      tag_1\n      jumpi\n      revert(0x00, 0x00)\n    tag_1:\n      pop\n      jumpi(tag_2, lt(calldatasize, 0x04))\n      shr(0xe0, calldataload(0x00))\n      dup1\n      0x6ba7fe7f\n      eq\n      tag_3\n      jumpi\n      dup1\n      0x8f9c79ed\n      eq\n      tag_4\n      jumpi\n      dup1\n      0x99374642\n      eq\n      tag_5\n      jumpi\n      dup1\n      0x996440c6\n      eq\n      tag_6\n      jumpi\n      dup1\n      0xa99ad4ee\n      eq\n      tag_7\n      jumpi\n    tag_2:\n      revert(0x00, 0x00)\n        /* \"contracts/user/UserRegistry.sol\":333:487  function registerAsDoctor() public {... */\n    tag_3:\n      tag_8\n      tag_9\n      jump\t// in\n    tag_8:\n      stop\n        /* \"contracts/user/UserRegistry.sol\":493:604  function isPatient(address user) public view returns (bool) {... */\n    tag_4:\n      tag_10\n      0x04\n      dup1\n      calldatasize\n      sub\n      dup2\n      add\n      swap1\n      tag_11\n      swap2\n      swap1\n      tag_12\n      jump\t// in\n    tag_11:\n      tag_13\n      jump\t// in\n    tag_10:\n      mload(0x40)\n      tag_14\n      swap2\n      swap1\n      tag_15\n      jump\t// in\n    tag_14:\n      mload(0x40)\n      dup1\n      swap2\n      sub\n      swap1\n      return\n        /* \"contracts/user/UserRegistry.sol\":127:164  mapping(address => Role) public roles */\n    tag_5:\n      tag_16\n      0x04\n      dup1\n      calldatasize\n      sub\n      dup2\n      add\n      swap1\n      tag_17\n      swap2\n      swap1\n      tag_12\n      jump\t// in\n    tag_17:\n      tag_18\n      jump\t// in\n    tag_16:\n      mload(0x40)\n      tag_19\n      swap2\n      swap1\n      tag_20\n      jump\t// in\n    tag_19:\n      mload(0x40)\n      dup1\n      swap2\n      sub\n      swap1\n      return\n        /* \"contracts/user/UserRegistry.sol\":610:719  function isDoctor(address user) public view returns (bool) {... */\n    tag_6:\n      tag_21\n      0x04\n      dup1\n      calldatasize\n      sub\n      dup2\n      add\n      swap1\n      tag_22\n      swap2\n      swap1\n      tag_12\n      jump\t// in\n    tag_22:\n      tag_23\n      jump\t// in\n    tag_21:\n      mload(0x40)\n      tag_24\n      swap2\n      swap1\n      tag_15\n      jump\t// in\n    tag_24:\n      mload(0x40)\n      dup1\n      swap2\n      sub\n      swap1\n      return\n        /* \"contracts/user/UserRegistry.sol\":171:327  function registerAsPatient() public {... */\n    tag_7:\n      tag_25\n      tag_26\n      jump\t// in\n    tag_25:\n      stop\n        /* \"contracts/user/UserRegistry.sol\":333:487  function registerAsDoctor() public {... */\n    tag_9:\n        /* \"contracts/user/UserRegistry.sol\":407:416  Role.None */\n      0x00\n        /* \"contracts/user/UserRegistry.sol\":386:416  roles[msg.sender] == Role.None */\n      0x02\n      dup2\n      gt\n      iszero\n      tag_28\n      jumpi\n      tag_29\n      tag_30\n      jump\t// in\n    tag_29:\n    tag_28:\n        /* \"contracts/user/UserRegistry.sol\":386:391  roles */\n      0x00\n        /* \"contracts/user/UserRegistry.sol\":386:403  roles[msg.sender] */\n      0x00\n        /* \"contracts/user/UserRegistry.sol\":392:402  msg.sender */\n      caller\n        /* \"contracts/user/UserRegistry.sol\":386:403  roles[msg.sender] */\n      0xffffffffffffffffffffffffffffffffffffffff\n      and\n      0xffffffffffffffffffffffffffffffffffffffff\n      and\n      dup2\n      mstore\n      0x20\n      add\n      swap1\n      dup2\n      mstore\n      0x20\n      add\n      0x00\n      keccak256\n      0x00\n      swap1\n      sload\n      swap1\n      0x0100\n      exp\n      swap1\n      div\n      0xff\n      and\n        /* \"contracts/user/UserRegistry.sol\":386:416  roles[msg.sender] == Role.None */\n      0x02\n      dup2\n      gt\n      iszero\n      tag_31\n      jumpi\n      tag_32\n      tag_30\n      jump\t// in\n    tag_32:\n    tag_31:\n      eq\n        /* \"contracts/user/UserRegistry.sol\":378:439  require(roles[msg.sender] == Role.None, \"Already registered\") */\n      tag_33\n      jumpi\n      mload(0x40)\n      0x08c379a000000000000000000000000000000000000000000000000000000000\n      dup2\n      mstore\n      0x04\n      add\n      tag_34\n      swap1\n      tag_35\n      jump\t// in\n    tag_34:\n      mload(0x40)\n      dup1\n      swap2\n      sub\n      swap1\n      revert\n    tag_33:\n        /* \"contracts/user/UserRegistry.sol\":469:480  Role.Doctor */\n      0x02\n        /* \"contracts/user/UserRegistry.sol\":449:454  roles */\n      0x00\n        /* \"contracts/user/UserRegistry.sol\":449:466  roles[msg.sender] */\n      0x00\n        /* \"contracts/user/UserRegistry.sol\":455:465  msg.sender */\n      caller\n        /* \"contracts/user/UserRegistry.sol\":449:466  roles[msg.sender] */\n      0xffffffffffffffffffffffffffffffffffffffff\n      and\n      0xffffffffffffffffffffffffffffffffffffffff\n      and\n      dup2\n      mstore\n      0x20\n      add\n      swap1\n      dup2\n      mstore\n      0x20\n      add\n      0x00\n      keccak256\n      0x00\n        /* \"contracts/user/UserRegistry.sol\":449:480  roles[msg.sender] = Role.Doctor */\n      0x0100\n      exp\n      dup2\n      sload\n      dup2\n      0xff\n      mul\n      not\n      and\n      swap1\n      dup4\n      0x02\n      dup2\n      gt\n      iszero\n      tag_36\n      jumpi\n      tag_37\n      tag_30\n      jump\t// in\n    tag_37:\n    tag_36:\n      mul\n      or\n      swap1\n      sstore\n      pop\n        /* \"contracts/user/UserRegistry.sol\":333:487  function registerAsDoctor() public {... */\n      jump\t// out\n        /* \"contracts/user/UserRegistry.sol\":493:604  function isPatient(address user) public view returns (bool) {... */\n    tag_13:\n        /* \"contracts/user/UserRegistry.sol\":547:551  bool */\n      0x00\n        /* \"contracts/user/UserRegistry.sol\":585:597  Role.Patient */\n      0x01\n        /* \"contracts/user/UserRegistry.sol\":570:597  roles[user] == Role.Patient */\n      0x02\n      dup2\n      gt\n      iszero\n      tag_39\n      jumpi\n      tag_40\n      tag_30\n      jump\t// in\n    tag_40:\n    tag_39:\n        /* \"contracts/user/UserRegistry.sol\":570:575  roles */\n      0x00\n        /* \"contracts/user/UserRegistry.sol\":570:581  roles[user] */\n      0x00\n        /* \"contracts/user/UserRegistry.sol\":576:580  user */\n      dup5\n        /* \"contracts/user/UserRegistry.sol\":570:581  roles[user] */\n      0xffffffffffffffffffffffffffffffffffffffff\n      and\n      0xffffffffffffffffffffffffffffffffffffffff\n      and\n      dup2\n      mstore\n      0x20\n      add\n      swap1\n      dup2\n      mstore\n      0x20\n      add\n      0x00\n      keccak256\n      0x00\n      swap1\n      sload\n      swap1\n      0x0100\n      exp\n      swap1\n      div\n      0xff\n      and\n        /* \"contracts/user/UserRegistry.sol\":570:597  roles[user] == Role.Patient */\n      0x02\n      dup2\n      gt\n      iszero\n      tag_41\n      jumpi\n      tag_42\n      tag_30\n      jump\t// in\n    tag_42:\n    tag_41:\n      eq\n        /* \"contracts/user/UserRegistry.sol\":563:597  return roles[user] == Role.Patient */\n      swap1\n      pop\n        /* \"contracts/user/UserRegistry.sol\":493:604  function isPatient(address user) public view returns (bool) {... */\n      swap2\n      swap1\n      pop\n      jump\t// out\n        /* \"contracts/user/UserRegistry.sol\":127:164  mapping(address => Role) public roles */\n    tag_18:\n      mstore(0x20, 0x00)\n      dup1\n      0x00\n      mstore\n      keccak256(0x00, 0x40)\n      0x00\n      swap2\n      pop\n      sload\n      swap1\n      0x0100\n      exp\n      swap1\n      div\n      0xff\n      and\n      dup2\n      jump\t// out\n        /* \"contracts/user/UserRegistry.sol\":610:719  function isDoctor(address user) public view returns (bool) {... */\n    tag_23:\n        /* \"contracts/user/UserRegistry.sol\":663:667  bool */\n      0x00\n        /* \"contracts/user/UserRegistry.sol\":701:712  Role.Doctor */\n      0x02\n        /* \"contracts/user/UserRegistry.sol\":686:712  roles[user] == Role.Doctor */\n      dup1\n      dup2\n      gt\n      iszero\n      tag_44\n      jumpi\n      tag_45\n      tag_30\n      jump\t// in\n    tag_45:\n    tag_44:\n        /* \"contracts/user/UserRegistry.sol\":686:691  roles */\n      0x00\n        /* \"contracts/user/UserRegistry.sol\":686:697  roles[user] */\n      0x00\n        /* \"contracts/user/UserRegistry.sol\":692:696  user */\n      dup5\n        /* \"contracts/user/UserRegistry.sol\":686:697  roles[user] */\n      0xffffffffffffffffffffffffffffffffffffffff\n      and\n      0xffffffffffffffffffffffffffffffffffffffff\n      and\n      dup2\n      mstore\n      0x20\n      add\n      swap1\n      dup2\n      mstore\n      0x20\n      add\n      0x00\n      keccak256\n      0x00\n      swap1\n      sload\n      swap1\n      0x0100\n      exp\n      swap1\n      div\n      0xff\n      and\n        /* \"contracts/user/UserRegistry.sol\":686:712  roles[user] == Role.Doctor */\n      0x02\n      dup2\n      gt\n      iszero\n      tag_46\n      jumpi\n      tag_47\n      tag_30\n      jump\t// in\n    tag_47:\n    tag_46:\n      eq\n        /* \"contracts/user/UserRegistry.sol\":679:712  return roles[user] == Role.Doctor */\n      swap1\n      pop\n        /* \"contracts/user/UserRegistry.sol\":610:719  function isDoctor(address user) public view returns (bool) {... */\n      swap2\n      swap1\n      pop\n      jump\t// out\n        /* \"contracts/user/UserRegistry.sol\":171:327  function registerAsPatient() public {... */\n    tag_26:\n        /* \"contracts/user/UserRegistry.sol\":246:255  Role.None */\n      0x00\n        /* \"contracts/user/UserRegistry.sol\":225:255  roles[msg.sender] == Role.None */\n      0x02\n      dup2\n      gt\n      iszero\n      tag_49\n      jumpi\n      tag_50\n      tag_30\n      jump\t// in\n    tag_50:\n    tag_49:\n        /* \"contracts/user/UserRegistry.sol\":225:230  roles */\n      0x00\n        /* \"contracts/user/UserRegistry.sol\":225:242  roles[msg.sender] */\n      0x00\n        /* \"contracts/user/UserRegistry.sol\":231:241  msg.sender */\n      caller\n        /* \"contracts/user/UserRegistry.sol\":225:242  roles[msg.sender] */\n      0xffffffffffffffffffffffffffffffffffffffff\n      and\n      0xffffffffffffffffffffffffffffffffffffffff\n      and\n      dup2\n      mstore\n      0x20\n      add\n      swap1\n      dup2\n      mstore\n      0x20\n      add\n      0x00\n      keccak256\n      0x00\n      swap1\n      sload\n      swap1\n      0x0100\n      exp\n      swap1\n      div\n      0xff\n      and\n        /* \"contracts/user/UserRegistry.sol\":225:255  roles[msg.sender] == Role.None */\n      0x02\n      dup2\n      gt\n      iszero\n      tag_51\n      jumpi\n      tag_52\n      tag_30\n      jump\t// in\n    tag_52:\n    tag_51:\n      eq\n        /* \"contracts/user/UserRegistry.sol\":217:278  require(roles[msg.sender] == Role.None, \"Already registered\") */\n      tag_53\n      jumpi\n      mload(0x40)\n      0x08c379a000000000000000000000000000000000000000000000000000000000\n      dup2\n      mstore\n      0x04\n      add\n      tag_54\n      swap1\n      tag_35\n      jump\t// in\n    tag_54:\n      mload(0x40)\n      dup1\n      swap2\n      sub\n      swap1\n      revert\n    tag_53:\n        /* \"contracts/user/UserRegistry.sol\":308:320  Role.Patient */\n      0x01\n        /* \"contracts/user/UserRegistry.sol\":288:293  roles */\n      0x00\n        /* \"contracts/user/UserRegistry.sol\":288:305  roles[msg.sender] */\n      0x00\n        /* \"contracts/user/UserRegistry.sol\":294:304  msg.sender */\n      caller\n        /* \"contracts/user/UserRegistry.sol\":288:305  roles[msg.sender] */\n      0xffffffffffffffffffffffffffffffffffffffff\n      and\n      0xffffffffffffffffffffffffffffffffffffffff\n      and\n      dup2\n      mstore\n      0x20\n      add\n      swap1\n      dup2\n      mstore\n      0x20\n      add\n      0x00\n      keccak256\n      0x00\n        /* \"contracts/user/UserRegistry.sol\":288:320  roles[msg.sender] = Role.Patient */\n      0x0100\n      exp\n      dup2\n      sload\n      dup2\n      0xff\n      mul\n      not\n      and\n      swap1\n      dup4\n      0x02\n      dup2\n      gt\n      iszero\n      tag_55\n      jumpi\n      tag_56\n      tag_30\n      jump\t// in\n    tag_56:\n    tag_55:\n      mul\n      or\n      swap1\n      sstore\n      pop\n        /* \"contracts/user/UserRegistry.sol\":171:327  function registerAsPatient() public {... */\n      jump\t// out\n        /* \"#utility.yul\":88:205   */\n    tag_58:\n        /* \"#utility.yul\":197:198   */\n      0x00\n        /* \"#utility.yul\":194:195   */\n      0x00\n        /* \"#utility.yul\":187:199   */\n      revert\n        /* \"#utility.yul\":334:460   */\n    tag_60:\n        /* \"#utility.yul\":371:378   */\n      0x00\n        /* \"#utility.yul\":411:453   */\n      0xffffffffffffffffffffffffffffffffffffffff\n        /* \"#utility.yul\":404:409   */\n      dup3\n        /* \"#utility.yul\":400:454   */\n      and\n        /* \"#utility.yul\":389:454   */\n      swap1\n      pop\n        /* \"#utility.yul\":334:460   */\n      swap2\n      swap1\n      pop\n      jump\t// out\n        /* \"#utility.yul\":466:562   */\n    tag_61:\n        /* \"#utility.yul\":503:510   */\n      0x00\n        /* \"#utility.yul\":532:556   */\n      tag_79\n        /* \"#utility.yul\":550:555   */\n      dup3\n        /* \"#utility.yul\":532:556   */\n      tag_60\n      jump\t// in\n    tag_79:\n        /* \"#utility.yul\":521:556   */\n      swap1\n      pop\n        /* \"#utility.yul\":466:562   */\n      swap2\n      swap1\n      pop\n      jump\t// out\n        /* \"#utility.yul\":568:690   */\n    tag_62:\n        /* \"#utility.yul\":641:665   */\n      tag_81\n        /* \"#utility.yul\":659:664   */\n      dup2\n        /* \"#utility.yul\":641:665   */\n      tag_61\n      jump\t// in\n    tag_81:\n        /* \"#utility.yul\":634:639   */\n      dup2\n        /* \"#utility.yul\":631:666   */\n      eq\n        /* \"#utility.yul\":621:684   */\n      tag_82\n      jumpi\n        /* \"#utility.yul\":680:681   */\n      0x00\n        /* \"#utility.yul\":677:678   */\n      0x00\n        /* \"#utility.yul\":670:682   */\n      revert\n        /* \"#utility.yul\":621:684   */\n    tag_82:\n        /* \"#utility.yul\":568:690   */\n      pop\n      jump\t// out\n        /* \"#utility.yul\":696:835   */\n    tag_63:\n        /* \"#utility.yul\":742:747   */\n      0x00\n        /* \"#utility.yul\":780:786   */\n      dup2\n        /* \"#utility.yul\":767:787   */\n      calldataload\n        /* \"#utility.yul\":758:787   */\n      swap1\n      pop\n        /* \"#utility.yul\":796:829   */\n      tag_84\n        /* \"#utility.yul\":823:828   */\n      dup2\n        /* \"#utility.yul\":796:829   */\n      tag_62\n      jump\t// in\n    tag_84:\n        /* \"#utility.yul\":696:835   */\n      swap3\n      swap2\n      pop\n      pop\n      jump\t// out\n        /* \"#utility.yul\":841:1170   */\n    tag_12:\n        /* \"#utility.yul\":900:906   */\n      0x00\n        /* \"#utility.yul\":949:951   */\n      0x20\n        /* \"#utility.yul\":937:946   */\n      dup3\n        /* \"#utility.yul\":928:935   */\n      dup5\n        /* \"#utility.yul\":924:947   */\n      sub\n        /* \"#utility.yul\":920:952   */\n      slt\n        /* \"#utility.yul\":917:1036   */\n      iszero\n      tag_86\n      jumpi\n        /* \"#utility.yul\":955:1034   */\n      tag_87\n      tag_58\n      jump\t// in\n    tag_87:\n        /* \"#utility.yul\":917:1036   */\n    tag_86:\n        /* \"#utility.yul\":1075:1076   */\n      0x00\n        /* \"#utility.yul\":1100:1153   */\n      tag_88\n        /* \"#utility.yul\":1145:1152   */\n      dup5\n        /* \"#utility.yul\":1136:1142   */\n      dup3\n        /* \"#utility.yul\":1125:1134   */\n      dup6\n        /* \"#utility.yul\":1121:1143   */\n      add\n        /* \"#utility.yul\":1100:1153   */\n      tag_63\n      jump\t// in\n    tag_88:\n        /* \"#utility.yul\":1090:1153   */\n      swap2\n      pop\n        /* \"#utility.yul\":1046:1163   */\n      pop\n        /* \"#utility.yul\":841:1170   */\n      swap3\n      swap2\n      pop\n      pop\n      jump\t// out\n        /* \"#utility.yul\":1176:1266   */\n    tag_64:\n        /* \"#utility.yul\":1210:1217   */\n      0x00\n        /* \"#utility.yul\":1253:1258   */\n      dup2\n        /* \"#utility.yul\":1246:1259   */\n      iszero\n        /* \"#utility.yul\":1239:1260   */\n      iszero\n        /* \"#utility.yul\":1228:1260   */\n      swap1\n      pop\n        /* \"#utility.yul\":1176:1266   */\n      swap2\n      swap1\n      pop\n      jump\t// out\n        /* \"#utility.yul\":1272:1381   */\n    tag_65:\n        /* \"#utility.yul\":1353:1374   */\n      tag_91\n        /* \"#utility.yul\":1368:1373   */\n      dup2\n        /* \"#utility.yul\":1353:1374   */\n      tag_64\n      jump\t// in\n    tag_91:\n        /* \"#utility.yul\":1348:1351   */\n      dup3\n        /* \"#utility.yul\":1341:1375   */\n      mstore\n        /* \"#utility.yul\":1272:1381   */\n      pop\n      pop\n      jump\t// out\n        /* \"#utility.yul\":1387:1597   */\n    tag_15:\n        /* \"#utility.yul\":1474:1478   */\n      0x00\n        /* \"#utility.yul\":1512:1514   */\n      0x20\n        /* \"#utility.yul\":1501:1510   */\n      dup3\n        /* \"#utility.yul\":1497:1515   */\n      add\n        /* \"#utility.yul\":1489:1515   */\n      swap1\n      pop\n        /* \"#utility.yul\":1525:1590   */\n      tag_93\n        /* \"#utility.yul\":1587:1588   */\n      0x00\n        /* \"#utility.yul\":1576:1585   */\n      dup4\n        /* \"#utility.yul\":1572:1589   */\n      add\n        /* \"#utility.yul\":1563:1569   */\n      dup5\n        /* \"#utility.yul\":1525:1590   */\n      tag_65\n      jump\t// in\n    tag_93:\n        /* \"#utility.yul\":1387:1597   */\n      swap3\n      swap2\n      pop\n      pop\n      jump\t// out\n        /* \"#utility.yul\":1603:1783   */\n    tag_30:\n        /* \"#utility.yul\":1651:1728   */\n      0x4e487b7100000000000000000000000000000000000000000000000000000000\n        /* \"#utility.yul\":1648:1649   */\n      0x00\n        /* \"#utility.yul\":1641:1729   */\n      mstore\n        /* \"#utility.yul\":1748:1752   */\n      0x21\n        /* \"#utility.yul\":1745:1746   */\n      0x04\n        /* \"#utility.yul\":1738:1753   */\n      mstore\n        /* \"#utility.yul\":1772:1776   */\n      0x24\n        /* \"#utility.yul\":1769:1770   */\n      0x00\n        /* \"#utility.yul\":1762:1777   */\n      revert\n        /* \"#utility.yul\":1789:1902   */\n    tag_66:\n        /* \"#utility.yul\":1870:1871   */\n      0x03\n        /* \"#utility.yul\":1863:1868   */\n      dup2\n        /* \"#utility.yul\":1860:1872   */\n      lt\n        /* \"#utility.yul\":1850:1896   */\n      tag_96\n      jumpi\n        /* \"#utility.yul\":1876:1894   */\n      tag_97\n      tag_30\n      jump\t// in\n    tag_97:\n        /* \"#utility.yul\":1850:1896   */\n    tag_96:\n        /* \"#utility.yul\":1789:1902   */\n      pop\n      jump\t// out\n        /* \"#utility.yul\":1908:2035   */\n    tag_67:\n        /* \"#utility.yul\":1953:1960   */\n      0x00\n        /* \"#utility.yul\":1982:1987   */\n      dup2\n        /* \"#utility.yul\":1971:1987   */\n      swap1\n      pop\n        /* \"#utility.yul\":1988:2029   */\n      tag_99\n        /* \"#utility.yul\":2023:2028   */\n      dup3\n        /* \"#utility.yul\":1988:2029   */\n      tag_66\n      jump\t// in\n    tag_99:\n        /* \"#utility.yul\":1908:2035   */\n      swap2\n      swap1\n      pop\n      jump\t// out\n        /* \"#utility.yul\":2041:2168   */\n    tag_68:\n        /* \"#utility.yul\":2097:2106   */\n      0x00\n        /* \"#utility.yul\":2130:2162   */\n      tag_101\n        /* \"#utility.yul\":2156:2161   */\n      dup3\n        /* \"#utility.yul\":2130:2162   */\n      tag_67\n      jump\t// in\n    tag_101:\n        /* \"#utility.yul\":2117:2162   */\n      swap1\n      pop\n        /* \"#utility.yul\":2041:2168   */\n      swap2\n      swap1\n      pop\n      jump\t// out\n        /* \"#utility.yul\":2174:2317   */\n    tag_69:\n        /* \"#utility.yul\":2267:2310   */\n      tag_103\n        /* \"#utility.yul\":2304:2309   */\n      dup2\n        /* \"#utility.yul\":2267:2310   */\n      tag_68\n      jump\t// in\n    tag_103:\n        /* \"#utility.yul\":2262:2265   */\n      dup3\n        /* \"#utility.yul\":2255:2311   */\n      mstore\n        /* \"#utility.yul\":2174:2317   */\n      pop\n      pop\n      jump\t// out\n        /* \"#utility.yul\":2323:2557   */\n    tag_20:\n        /* \"#utility.yul\":2422:2426   */\n      0x00\n        /* \"#utility.yul\":2460:2462   */\n      0x20\n        /* \"#utility.yul\":2449:2458   */\n      dup3\n        /* \"#utility.yul\":2445:2463   */\n      add\n        /* \"#utility.yul\":2437:2463   */\n      swap1\n      pop\n        /* \"#utility.yul\":2473:2550   */\n      tag_105\n        /* \"#utility.yul\":2547:2548   */\n      0x00\n        /* \"#utility.yul\":2536:2545   */\n      dup4\n        /* \"#utility.yul\":2532:2549   */\n      add\n        /* \"#utility.yul\":2523:2529   */\n      dup5\n        /* \"#utility.yul\":2473:2550   */\n      tag_69\n      jump\t// in\n    tag_105:\n        /* \"#utility.yul\":2323:2557   */\n      swap3\n      swap2\n      pop\n      pop\n      jump\t// out\n        /* \"#utility.yul\":2563:2732   */\n    tag_70:\n        /* \"#utility.yul\":2647:2658   */\n      0x00\n        /* \"#utility.yul\":2681:2687   */\n      dup3\n        /* \"#utility.yul\":2676:2679   */\n      dup3\n        /* \"#utility.yul\":2669:2688   */\n      mstore\n        /* \"#utility.yul\":2721:2725   */\n      0x20\n        /* \"#utility.yul\":2716:2719   */\n      dup3\n        /* \"#utility.yul\":2712:2726   */\n      add\n        /* \"#utility.yul\":2697:2726   */\n      swap1\n      pop\n        /* \"#utility.yul\":2563:2732   */\n      swap3\n      swap2\n      pop\n      pop\n      jump\t// out\n        /* \"#utility.yul\":2738:2906   */\n    tag_71:\n        /* \"#utility.yul\":2878:2898   */\n      0x416c726561647920726567697374657265640000000000000000000000000000\n        /* \"#utility.yul\":2874:2875   */\n      0x00\n        /* \"#utility.yul\":2866:2872   */\n      dup3\n        /* \"#utility.yul\":2862:2876   */\n      add\n        /* \"#utility.yul\":2855:2899   */\n      mstore\n        /* \"#utility.yul\":2738:2906   */\n      pop\n      jump\t// out\n        /* \"#utility.yul\":2912:3278   */\n    tag_72:\n        /* \"#utility.yul\":3054:3057   */\n      0x00\n        /* \"#utility.yul\":3075:3142   */\n      tag_109\n        /* \"#utility.yul\":3139:3141   */\n      0x12\n        /* \"#utility.yul\":3134:3137   */\n      dup4\n        /* \"#utility.yul\":3075:3142   */\n      tag_70\n      jump\t// in\n    tag_109:\n        /* \"#utility.yul\":3068:3142   */\n      swap2\n      pop\n        /* \"#utility.yul\":3151:3244   */\n      tag_110\n        /* \"#utility.yul\":3240:3243   */\n      dup3\n        /* \"#utility.yul\":3151:3244   */\n      tag_71\n      jump\t// in\n    tag_110:\n        /* \"#utility.yul\":3269:3271   */\n      0x20\n        /* \"#utility.yul\":3264:3267   */\n      dup3\n        /* \"#utility.yul\":3260:3272   */\n      add\n        /* \"#utility.yul\":3253:3272   */\n      swap1\n      pop\n        /* \"#utility.yul\":2912:3278   */\n      swap2\n      swap1\n      pop\n      jump\t// out\n        /* \"#utility.yul\":3284:3703   */\n    tag_35:\n        /* \"#utility.yul\":3450:3454   */\n      0x00\n        /* \"#utility.yul\":3488:3490   */\n      0x20\n        /* \"#utility.yul\":3477:3486   */\n      dup3\n        /* \"#utility.yul\":3473:3491   */\n      add\n        /* \"#utility.yul\":3465:3491   */\n      swap1\n      pop\n        /* \"#utility.yul\":3537:3546   */\n      dup2\n        /* \"#utility.yul\":3531:3535   */\n      dup2\n        /* \"#utility.yul\":3527:3547   */\n      sub\n        /* \"#utility.yul\":3523:3524   */\n      0x00\n        /* \"#utility.yul\":3512:3521   */\n      dup4\n        /* \"#utility.yul\":3508:3525   */\n      add\n        /* \"#utility.yul\":3501:3548   */\n      mstore\n        /* \"#utility.yul\":3565:3696   */\n      tag_112\n        /* \"#utility.yul\":3691:3695   */\n      dup2\n        /* \"#utility.yul\":3565:3696   */\n      tag_72\n      jump\t// in\n    tag_112:\n        /* \"#utility.yul\":3557:3696   */\n      swap1\n      pop\n        /* \"#utility.yul\":3284:3703   */\n      swap2\n      swap1\n      pop\n      jump\t// out\n\n    auxdata: 0xa2646970667358221220f045d99008f5a20662d1c9507bfd9df572e81a126b66eb36356e6ed54143d0c764736f6c634300081e0033\n}\n",
				"bytecode": {
					"linkReferences": {},
					"object": "6080604052348015600e575f5ffd5b506106268061001c5f395ff3fe608060405234801561000f575f5ffd5b5060043610610055575f3560e01c80636ba7fe7f146100595780638f9c79ed146100635780639937464214610093578063996440c6146100c3578063a99ad4ee146100f3575b5f5ffd5b6100616100fd565b005b61007d6004803603810190610078919061048e565b610211565b60405161008a91906104d3565b60405180910390f35b6100ad60048036038101906100a8919061048e565b610289565b6040516100ba919061055f565b60405180910390f35b6100dd60048036038101906100d8919061048e565b6102a5565b6040516100ea91906104d3565b60405180910390f35b6100fb61031c565b005b5f60028111156101105761010f6104ec565b5b5f5f3373ffffffffffffffffffffffffffffffffffffffff1673ffffffffffffffffffffffffffffffffffffffff1681526020019081526020015f205f9054906101000a900460ff16600281111561016b5761016a6104ec565b5b146101ab576040517f08c379a00000000000000000000000000000000000000000000000000000000081526004016101a2906105d2565b60405180910390fd5b60025f5f3373ffffffffffffffffffffffffffffffffffffffff1673ffffffffffffffffffffffffffffffffffffffff1681526020019081526020015f205f6101000a81548160ff0219169083600281111561020a576102096104ec565b5b0217905550565b5f60016002811115610226576102256104ec565b5b5f5f8473ffffffffffffffffffffffffffffffffffffffff1673ffffffffffffffffffffffffffffffffffffffff1681526020019081526020015f205f9054906101000a900460ff166002811115610281576102806104ec565b5b149050919050565b5f602052805f5260405f205f915054906101000a900460ff1681565b5f6002808111156102b9576102b86104ec565b5b5f5f8473ffffffffffffffffffffffffffffffffffffffff1673ffffffffffffffffffffffffffffffffffffffff1681526020019081526020015f205f9054906101000a900460ff166002811115610314576103136104ec565b5b149050919050565b5f600281111561032f5761032e6104ec565b5b5f5f3373ffffffffffffffffffffffffffffffffffffffff1673ffffffffffffffffffffffffffffffffffffffff1681526020019081526020015f205f9054906101000a900460ff16600281111561038a576103896104ec565b5b146103ca576040517f08c379a00000000000000000000000000000000000000000000000000000000081526004016103c1906105d2565b60405180910390fd5b60015f5f3373ffffffffffffffffffffffffffffffffffffffff1673ffffffffffffffffffffffffffffffffffffffff1681526020019081526020015f205f6101000a81548160ff02191690836002811115610429576104286104ec565b5b0217905550565b5f5ffd5b5f73ffffffffffffffffffffffffffffffffffffffff82169050919050565b5f61045d82610434565b9050919050565b61046d81610453565b8114610477575f5ffd5b50565b5f8135905061048881610464565b92915050565b5f602082840312156104a3576104a2610430565b5b5f6104b08482850161047a565b91505092915050565b5f8115159050919050565b6104cd816104b9565b82525050565b5f6020820190506104e65f8301846104c4565b92915050565b7f4e487b71000000000000000000000000000000000000000000000000000000005f52602160045260245ffd5b6003811061052a576105296104ec565b5b50565b5f81905061053a82610519565b919050565b5f6105498261052d565b9050919050565b6105598161053f565b82525050565b5f6020820190506105725f830184610550565b92915050565b5f82825260208201905092915050565b7f416c7265616479207265676973746572656400000000000000000000000000005f82015250565b5f6105bc601283610578565b91506105c782610588565b602082019050919050565b5f6020820190508181035f8301526105e9816105b0565b905091905056fea2646970667358221220f045d99008f5a20662d1c9507bfd9df572e81a126b66eb36356e6ed54143d0c764736f6c634300081e0033",
					"opcodes": "PUSH1 0x80 PUSH1 0x40 MSTORE CALLVALUE DUP1 ISZERO PUSH1 0xE JUMPI PUSH0 PUSH0 REVERT JUMPDEST POP PUSH2 0x626 DUP1 PUSH2 0x1C PUSH0 CODECOPY PUSH0 RETURN INVALID PUSH1 0x80 PUSH1 0x40 MSTORE CALLVALUE DUP1 ISZERO PUSH2 0xF JUMPI PUSH0 PUSH0 REVERT JUMPDEST POP PUSH1 0x4 CALLDATASIZE LT PUSH2 0x55 JUMPI PUSH0 CALLDATALOAD PUSH1 0xE0 SHR DUP1 PUSH4 0x6BA7FE7F EQ PUSH2 0x59 JUMPI DUP1 PUSH4 0x8F9C79ED EQ PUSH2 0x63 JUMPI DUP1 PUSH4 0x99374642 EQ PUSH2 0x93 JUMPI DUP1 PUSH4 0x996440C6 EQ PUSH2 0xC3 JUMPI DUP1 PUSH4 0xA99AD4EE EQ PUSH2 0xF3 JUMPI JUMPDEST PUSH0 PUSH0 REVERT JUMPDEST PUSH2 0x61 PUSH2 0xFD JUMP JUMPDEST STOP JUMPDEST PUSH2 0x7D PUSH1 0x4 DUP1 CALLDATASIZE SUB DUP2 ADD SWAP1 PUSH2 0x78 SWAP2 SWAP1 PUSH2 0x48E JUMP JUMPDEST PUSH2 0x211 JUMP JUMPDEST PUSH1 0x40 MLOAD PUSH2 0x8A SWAP2 SWAP1 PUSH2 0x4D3 JUMP JUMPDEST PUSH1 0x40 MLOAD DUP1 SWAP2 SUB SWAP1 RETURN JUMPDEST PUSH2 0xAD PUSH1 0x4 DUP1 CALLDATASIZE SUB DUP2 ADD SWAP1 PUSH2 0xA8 SWAP2 SWAP1 PUSH2 0x48E JUMP JUMPDEST PUSH2 0x289 JUMP JUMPDEST PUSH1 0x40 MLOAD PUSH2 0xBA SWAP2 SWAP1 PUSH2 0x55F JUMP JUMPDEST PUSH1 0x40 MLOAD DUP1 SWAP2 SUB SWAP1 RETURN JUMPDEST PUSH2 0xDD PUSH1 0x4 DUP1 CALLDATASIZE SUB DUP2 ADD SWAP1 PUSH2 0xD8 SWAP2 SWAP1 PUSH2 0x48E JUMP JUMPDEST PUSH2 0x2A5 JUMP JUMPDEST PUSH1 0x40 MLOAD PUSH2 0xEA SWAP2 SWAP1 PUSH2 0x4D3 JUMP JUMPDEST PUSH1 0x40 MLOAD DUP1 SWAP2 SUB SWAP1 RETURN JUMPDEST PUSH2 0xFB PUSH2 0x31C JUMP JUMPDEST STOP JUMPDEST PUSH0 PUSH1 0x2 DUP2 GT ISZERO PUSH2 0x110 JUMPI PUSH2 0x10F PUSH2 0x4EC JUMP JUMPDEST JUMPDEST PUSH0 PUSH0 CALLER PUSH20 0xFFFFFFFFFFFFFFFFFFFFFFFFFFFFFFFFFFFFFFFF AND PUSH20 0xFFFFFFFFFFFFFFFFFFFFFFFFFFFFFFFFFFFFFFFF AND DUP2 MSTORE PUSH1 0x20 ADD SWAP1 DUP2 MSTORE PUSH1 0x20 ADD PUSH0 KECCAK256 PUSH0 SWAP1 SLOAD SWAP1 PUSH2 0x100 EXP SWAP1 DIV PUSH1 0xFF AND PUSH1 0x2 DUP2 GT ISZERO PUSH2 0x16B JUMPI PUSH2 0x16A PUSH2 0x4EC JUMP JUMPDEST JUMPDEST EQ PUSH2 0x1AB JUMPI PUSH1 0x40 MLOAD PUSH32 0x8C379A000000000000000000000000000000000000000000000000000000000 DUP2 MSTORE PUSH1 0x4 ADD PUSH2 0x1A2 SWAP1 PUSH2 0x5D2 JUMP JUMPDEST PUSH1 0x40 MLOAD DUP1 SWAP2 SUB SWAP1 REVERT JUMPDEST PUSH1 0x2 PUSH0 PUSH0 CALLER PUSH20 0xFFFFFFFFFFFFFFFFFFFFFFFFFFFFFFFFFFFFFFFF AND PUSH20 0xFFFFFFFFFFFFFFFFFFFFFFFFFFFFFFFFFFFFFFFF AND DUP2 MSTORE PUSH1 0x20 ADD SWAP1 DUP2 MSTORE PUSH1 0x20 ADD PUSH0 KECCAK256 PUSH0 PUSH2 0x100 EXP DUP2 SLOAD DUP2 PUSH1 0xFF MUL NOT AND SWAP1 DUP4 PUSH1 0x2 DUP2 GT ISZERO PUSH2 0x20A JUMPI PUSH2 0x209 PUSH2 0x4EC JUMP JUMPDEST JUMPDEST MUL OR SWAP1 SSTORE POP JUMP JUMPDEST PUSH0 PUSH1 0x1 PUSH1 0x2 DUP2 GT ISZERO PUSH2 0x226 JUMPI PUSH2 0x225 PUSH2 0x4EC JUMP JUMPDEST JUMPDEST PUSH0 PUSH0 DUP5 PUSH20 0xFFFFFFFFFFFFFFFFFFFFFFFFFFFFFFFFFFFFFFFF AND PUSH20 0xFFFFFFFFFFFFFFFFFFFFFFFFFFFFFFFFFFFFFFFF AND DUP2 MSTORE PUSH1 0x20 ADD SWAP1 DUP2 MSTORE PUSH1 0x20 ADD PUSH0 KECCAK256 PUSH0 SWAP1 SLOAD SWAP1 PUSH2 0x100 EXP SWAP1 DIV PUSH1 0xFF AND PUSH1 0x2 DUP2 GT ISZERO PUSH2 0x281 JUMPI PUSH2 0x280 PUSH2 0x4EC JUMP JUMPDEST JUMPDEST EQ SWAP1 POP SWAP2 SWAP1 POP JUMP JUMPDEST PUSH0 PUSH1 0x20 MSTORE DUP1 PUSH0 MSTORE PUSH1 0x40 PUSH0 KECCAK256 PUSH0 SWAP2 POP SLOAD SWAP1 PUSH2 0x100 EXP SWAP1 DIV PUSH1 0xFF AND DUP2 JUMP JUMPDEST PUSH0 PUSH1 0x2 DUP1 DUP2 GT ISZERO PUSH2 0x2B9 JUMPI PUSH2 0x2B8 PUSH2 0x4EC JUMP JUMPDEST JUMPDEST PUSH0 PUSH0 DUP5 PUSH20 0xFFFFFFFFFFFFFFFFFFFFFFFFFFFFFFFFFFFFFFFF AND PUSH20 0xFFFFFFFFFFFFFFFFFFFFFFFFFFFFFFFFFFFFFFFF AND DUP2 MSTORE PUSH1 0x20 ADD SWAP1 DUP2 MSTORE PUSH1 0x20 ADD PUSH0 KECCAK256 PUSH0 SWAP1 SLOAD SWAP1 PUSH2 0x100 EXP SWAP1 DIV PUSH1 0xFF AND PUSH1 0x2 DUP2 GT ISZERO PUSH2 0x314 JUMPI PUSH2 0x313 PUSH2 0x4EC JUMP JUMPDEST JUMPDEST EQ SWAP1 POP SWAP2 SWAP1 POP JUMP JUMPDEST PUSH0 PUSH1 0x2 DUP2 GT ISZERO PUSH2 0x32F JUMPI PUSH2 0x32E PUSH2 0x4EC JUMP JUMPDEST JUMPDEST PUSH0 PUSH0 CALLER PUSH20 0xFFFFFFFFFFFFFFFFFFFFFFFFFFFFFFFFFFFFFFFF AND PUSH20 0xFFFFFFFFFFFFFFFFFFFFFFFFFFFFFFFFFFFFFFFF AND DUP2 MSTORE PUSH1 0x20 ADD SWAP1 DUP2 MSTORE PUSH1 0x20 ADD PUSH0 KECCAK256 PUSH0 SWAP1 SLOAD SWAP1 PUSH2 0x100 EXP SWAP1 DIV PUSH1 0xFF AND PUSH1 0x2 DUP2 GT ISZERO PUSH2 0x38A JUMPI PUSH2 0x389 PUSH2 0x4EC JUMP JUMPDEST JUMPDEST EQ PUSH2 0x3CA JUMPI PUSH1 0x40 MLOAD PUSH32 0x8C379A000000000000000000000000000000000000000000000000000000000 DUP2 MSTORE PUSH1 0x4 ADD PUSH2 0x3C1 SWAP1 PUSH2 0x5D2 JUMP JUMPDEST PUSH1 0x40 MLOAD DUP1 SWAP2 SUB SWAP1 REVERT JUMPDEST PUSH1 0x1 PUSH0 PUSH0 CALLER PUSH20 0xFFFFFFFFFFFFFFFFFFFFFFFFFFFFFFFFFFFFFFFF AND PUSH20 0xFFFFFFFFFFFFFFFFFFFFFFFFFFFFFFFFFFFFFFFF AND DUP2 MSTORE PUSH1 0x20 ADD SWAP1 DUP2 MSTORE PUSH1 0x20 ADD PUSH0 KECCAK256 PUSH0 PUSH2 0x100 EXP DUP2 SLOAD DUP2 PUSH1 0xFF MUL NOT AND SWAP1 DUP4 PUSH1 0x2 DUP2 GT ISZERO PUSH2 0x429 JUMPI PUSH2 0x428 PUSH2 0x4EC JUMP JUMPDEST JUMPDEST MUL OR SWAP1 SSTORE POP JUMP JUMPDEST PUSH0 PUSH0 REVERT JUMPDEST PUSH0 PUSH20 0xFFFFFFFFFFFFFFFFFFFFFFFFFFFFFFFFFFFFFFFF DUP3 AND SWAP1 POP SWAP2 SWAP1 POP JUMP JUMPDEST PUSH0 PUSH2 0x45D DUP3 PUSH2 0x434 JUMP JUMPDEST SWAP1 POP SWAP2 SWAP1 POP JUMP JUMPDEST PUSH2 0x46D DUP2 PUSH2 0x453 JUMP JUMPDEST DUP2 EQ PUSH2 0x477 JUMPI PUSH0 PUSH0 REVERT JUMPDEST POP JUMP JUMPDEST PUSH0 DUP2 CALLDATALOAD SWAP1 POP PUSH2 0x488 DUP2 PUSH2 0x464 JUMP JUMPDEST SWAP3 SWAP2 POP POP JUMP JUMPDEST PUSH0 PUSH1 0x20 DUP3 DUP5 SUB SLT ISZERO PUSH2 0x4A3 JUMPI PUSH2 0x4A2 PUSH2 0x430 JUMP JUMPDEST JUMPDEST PUSH0 PUSH2 0x4B0 DUP5 DUP3 DUP6 ADD PUSH2 0x47A JUMP JUMPDEST SWAP2 POP POP SWAP3 SWAP2 POP POP JUMP JUMPDEST PUSH0 DUP2 ISZERO ISZERO SWAP1 POP SWAP2 SWAP1 POP JUMP JUMPDEST PUSH2 0x4CD DUP2 PUSH2 0x4B9 JUMP JUMPDEST DUP3 MSTORE POP POP JUMP JUMPDEST PUSH0 PUSH1 0x20 DUP3 ADD SWAP1 POP PUSH2 0x4E6 PUSH0 DUP4 ADD DUP5 PUSH2 0x4C4 JUMP JUMPDEST SWAP3 SWAP2 POP POP JUMP JUMPDEST PUSH32 0x4E487B7100000000000000000000000000000000000000000000000000000000 PUSH0 MSTORE PUSH1 0x21 PUSH1 0x4 MSTORE PUSH1 0x24 PUSH0 REVERT JUMPDEST PUSH1 0x3 DUP2 LT PUSH2 0x52A JUMPI PUSH2 0x529 PUSH2 0x4EC JUMP JUMPDEST JUMPDEST POP JUMP JUMPDEST PUSH0 DUP2 SWAP1 POP PUSH2 0x53A DUP3 PUSH2 0x519 JUMP JUMPDEST SWAP2 SWAP1 POP JUMP JUMPDEST PUSH0 PUSH2 0x549 DUP3 PUSH2 0x52D JUMP JUMPDEST SWAP1 POP SWAP2 SWAP1 POP JUMP JUMPDEST PUSH2 0x559 DUP2 PUSH2 0x53F JUMP JUMPDEST DUP3 MSTORE POP POP JUMP JUMPDEST PUSH0 PUSH1 0x20 DUP3 ADD SWAP1 POP PUSH2 0x572 PUSH0 DUP4 ADD DUP5 PUSH2 0x550 JUMP JUMPDEST SWAP3 SWAP2 POP POP JUMP JUMPDEST PUSH0 DUP3 DUP3 MSTORE PUSH1 0x20 DUP3 ADD SWAP1 POP SWAP3 SWAP2 POP POP JUMP JUMPDEST PUSH32 0x416C726561647920726567697374657265640000000000000000000000000000 PUSH0 DUP3 ADD MSTORE POP JUMP JUMPDEST PUSH0 PUSH2 0x5BC PUSH1 0x12 DUP4 PUSH2 0x578 JUMP JUMPDEST SWAP2 POP PUSH2 0x5C7 DUP3 PUSH2 0x588 JUMP JUMPDEST PUSH1 0x20 DUP3 ADD SWAP1 POP SWAP2 SWAP1 POP JUMP JUMPDEST PUSH0 PUSH1 0x20 DUP3 ADD SWAP1 POP DUP2 DUP2 SUB PUSH0 DUP4 ADD MSTORE PUSH2 0x5E9 DUP2 PUSH2 0x5B0 JUMP JUMPDEST SWAP1 POP SWAP2 SWAP1 POP JUMP INVALID LOG2 PUSH5 0x6970667358 0x22 SLT KECCAK256 CREATE GASLIMIT 0xD9 SWAP1 ADDMOD CREATE2 LOG2 MOD PUSH3 0xD1C950 PUSH28 0xFD9DF572E81A126B66EB36356E6ED54143D0C764736F6C634300081E STOP CALLER "
				},
				"gasEstimates": {
					"creation": {
						"codeDepositCost": "314800",
						"executionCost": "353",
						"totalCost": "315153"
					},
					"external": {
						"isDoctor(address)": "2971",
						"isPatient(address)": "2927",
						"registerAsDoctor()": "26788",
						"registerAsPatient()": "26876",
						"roles(address)": "2942"
					}
				},
				"methodIdentifiers": {
					"isDoctor(address)": "996440c6",
					"isPatient(address)": "8f9c79ed",
					"registerAsDoctor()": "6ba7fe7f",
					"registerAsPatient()": "a99ad4ee",
					"roles(address)": "99374642"
				}
			},
			"storageLayout": {
				"storage": [
					{
						"astId": 135,
						"contract": "contracts/user/UserRegistry.sol:UserRegistry",
						"label": "roles",
						"offset": 0,
						"slot": "0",
						"type": "t_mapping(t_address,t_enum(Role)130)"
					}
				],
				"types": {
					"t_address": {
						"encoding": "inplace",
						"label": "address",
						"numberOfBytes": "20"
					},
					"t_enum(Role)130": {
						"encoding": "inplace",
						"label": "enum UserRegistry.Role",
						"numberOfBytes": "1"
					},
					"t_mapping(t_address,t_enum(Role)130)": {
						"encoding": "mapping",
						"key": "t_address",
						"label": "mapping(address => enum UserRegistry.Role)",
						"numberOfBytes": "32",
						"value": "t_enum(Role)130"
					}
				}
			},
			"userdoc": {
				"kind": "user",
				"methods": {},
				"version": 1
			}
		}
	}
}